:020000040800F2
:10000000B80C0020852D0008650300086703000870
:100010006B0300086F030008730300080000000072
:10002000000000000000000000000000770300084E
:1000300079030008000000007B0300087D0300082E
:100040009F2D00089F2D00089F2D00089F2D000860
:100050009F2D00089F2D00089F2D00089F2D000850
:100060009F2D00089F2D00089F2D00089F2D000840
:100070009F2D00089F2D00089F2D00089F2D000830
:100080009F2D00089F2D00089F2D00089F2D000820
:100090009F2D00089F2D00089F2D00089F2D000810
:1000A0009F2D00089F2D00089F2D00089F2D000800
:1000B0009F2D00089F2D00089F2D00089F2D0008F0
:1000C0009F2D00089F2D00089F2D00089F2D0008E0
:1000D0009F2D0008DF1200089F2D00089F2D0008AB
:1000E0009F2D00089F2D00089F2D00089F2D0008C0
:1000F0009F2D00089F2D00089F2D00089F2D0008B0
:100100009F2D00089F2D0008E70200089F2D000882
:100110009F2D00089F2D00089F2D00089F2D00088F
:100120009F2D00089F2D00089F2D00089F2D00087F
:1001300000F002F800F05AF80AA090E8000C82449F
:100140008344AAF10107DA4501D100F04FF8AFF27C
:10015000090EBAE80F0013F0010F18BFFB1A43F0A5
:1001600001031847F43C0000143D00000A444FF01E
:10017000000C10F8013B13F0070408BF10F8014B06
:100180001D1108BF10F8015B641E05D010F8016B4B
:10019000641E01F8016BF9D113F0080F1EBF10F8AF
:1001A000014BAD1C0C1B09D16D1E58BF01F801CBD2
:1001B000FAD505E014F8016B01F8016B6D1EF9D555
:1001C0009142D6D37047000000230024002500266A
:1001D000103A28BF78C1FBD8520728BF30C148BFAA
:1001E0000B6070471FB51FBD10B510BD02F0EFFDCD
:1001F0001146FFF7F7FF00F037F802F00DFE03B4E9
:10020000FFF7F2FF03BC01F00FF8000010B500F09B
:100210009BFF01F003F800F009FD00F084FA00BF35
:1002200000F0F6FE0028FBD142490860642000F08F
:10023000C8FF002000F064FF3F490860012000F083
:100240005FFF3E490860022000F05AFF3C49086009
:10025000032000F055FF3B49086040F2CF2140F2F7
:10026000CF7000F0FDFC10BDFFF7D0FF3AE0324840
:1002700001683548006803F06DF904460023224602
:100280000121184600F046FC2C4801682F48006800
:1002900003F060F90446002322460321184600F0CB
:1002A00039FC274801682A48006803F053F90446DE
:1002B000002322460521184600F02CFC2148016845
:1002C0002448006803F046F904460023224607212B
:1002D000184600F01FFC00BF40211F4802F0F8FC48
:1002E0000028F9D0C3E710B51C48008800F00100D1
:1002F000C8B1002000F004FF13490860012000F09D
:10030000FFFE12490860022000F0FAFE1049086062
:10031000032000F0F5FE0F49086006480068C0435E
:100320000F49C1F888010D48008820F001000B49F1
:10033000088010BD88812242100000201400002097
:10034000180000201C0000200000002004000020F5
:10035000080000200C00002000380140100C004074
:1003600000802242704700BFFEE700BFFEE700BFEB
:10037000FEE700BFFEE77047704770477047000018
:100380000CB50020019000906C48006840F480306B
:100390006A49086000BF6948006800F400300090B6
:1003A0000198401C0190009818B90198B0F5A06F11
:1003B000F1D16248006800F4003010B101200090D3
:1003C00001E0002000900098012843D15C480068BB
:1003D00040F010005A4908600846006820F0030009
:1003E00008600846006840F0020008605348406812
:1003F000524948600846406848600846406840F4F2
:10040000806048600846406820F47C1048600846D8
:10041000406840F4E81048600846006840F080708A
:10042000086000BF4548006800F000700028F9D05F
:100430004248406820F00300404948600846406850
:1004400040F00200486000BF3C48406800F00C00EB
:100450000828F9D10CBD10B5FFF792FF10BD10B5FB
:100460003648006840F0010034490860084640689A
:10047000344908403149486008460068324908401C
:100480002E4908600846006820F48020086008466D
:10049000406820F4FE0048604FF41F008860FFF7BA
:1004A000DAFF4FF000602949086010BD10B5002147
:1004B00000200022214B5B6803F00C0121B10429CC
:1004C00006D0082928D107E0214B224C236027E0E1
:1004D0001F4B204C236023E0184B5B6803F4701023
:1004E000164B5B6803F48032022303EB904022B981
:1004F000194B4343174C23600DE0104B5B6803F42A
:10050000003323B1144B4343124C236003E0104BE0
:100510004343104C236003E00D4B0E4C236000BF9F
:1005200000BF064B5B68C3F303130C4CE15C094B43
:100530001B68CB40074C236010BD00000010024038
:10054000002002400000FFF8FFFFF6FE08ED00E08B
:1005500000127A002000002000093D002400002045
:1005600008B50121082001F097FA4FF44070ADF86A
:10057000000010208DF8030003208DF8020069466A
:10058000F64800F0CDFF4FF44071F44801F075F8E3
:1005900008BD10B50120F249086000F0EEFD012011
:1005A000F049C1F8A00100F0E8FD0020EC49086026
:1005B000012000F0E2FD0020EA49C1F8A00110BDD1
:1005C00010B50020E6490860012000F0D6FD0020AB
:1005D000E449C1F8A001012000F0CFFD0120E0496D
:1005E000086000F0CAFD0120DE49C1F8A00110BD7D
:1005F00070B5044600251DE004F0800018B101200C
:10060000D749086002E00020D5490860012000F0C9
:10061000B4FD0120D249091F086000F0AEFD0020A2
:10062000D049C1F8A001012000F0A7FD6006040E2A
:10063000681CC5B2082DDFDB0120C949091F08600D
:1006400000F09BFD0020C749C1F8A00170BD10B5A6
:100650000446FFF79EFF7820FFF7CAFF4020FFF710
:10066000C7FF2046FFF7C4FFFFF7AAFF10BD10B574
:100670000446FFF78EFF7820FFF7BAFF0020FFF750
:10068000B7FF2046FFF7B4FFFFF79AFF10BD70B524
:1006900004460D4605F1B001C8B2FFF7E8FF10218E
:1006A00041EA1410FFF7E3FF04F00F0141F00100ED
:1006B000FFF7DDFF70BD70B50646002415E004F1BC
:1006C000B001C8B2FFF7D3FF0120FFF7D0FF102021
:1006D000FFF7CDFF002504E03046FFF7B8FF681CA8
:1006E000C5B2802DF8DB601CC4B2082CE7DB70BDFE
:1006F00010B50020FFF7DFFF10BD10B58D20FFF70C
:10070000B6FF1420FFF7B3FFAF20FFF7B0FF10BD17
:1007100010B58D20FFF7ABFF1020FFF7A8FFAE202C
:10072000FFF7A5FF10BD10B5FFF71AFF642000F01A
:1007300048FDAE20FFF79BFF0020FFF798FF102039
:10074000FFF795FF4020FFF792FF8120FFF78FFF13
:10075000C420FFF78CFFA120FFF789FFC820FFF717
:1007600086FFA620FFF783FFA820FFF780FF3F202A
:10077000FFF77DFFD320FFF77AFF0020FFF777FF19
:10078000D520FFF774FF8020FFF771FFD920FFF716
:100790006EFFF120FFF76BFFDA20FFF768FF1220F2
:1007A000FFF765FFDB20FFF762FF4020FFF75FFFE9
:1007B0002020FFF75CFF0220FFF759FF8D20FFF795
:1007C00056FF1420FFF753FFA420FFF750FFA62089
:1007D000FFF74DFFAF20FFF74AFF0020FFF76BFF49
:1007E00000210846FFF753FF10BD2DE9F05F0446D6
:1007F000894615469A464FF0000B00260027BAF1AD
:10080000000F01D1B04601E04FF0FF0822E0E85DA3
:10081000203800F0FF0B7E2C04DD002409F10100DC
:1008200000F0FF0949462046FFF731FF00260BE0A4
:100830000BEB4B014C4A02EB4101895D81EA080058
:10084000FFF705FF701CC6B2062EF1DBA01DC4B277
:10085000781CC7B2E85D0028D9D1BDE8F09F2DE92A
:10086000F05F0746884691469B4600250024A24635
:10087000BBF1000F01D1002600E0FF2638E019F897
:100880000A002038C5B2782F04DD002708F10100E6
:1008900000F0FF0841463846FFF7F9FE002409E062
:1008A00004EB0511314A515C81EA0600FFF7CFFEE7
:1008B000601CC4B2082CF3DB08F10100C1B2384659
:1008C000FFF7E5FE00240AE004EB05110831274A92
:1008D000515C81EA0600FFF7BAFE601CC4B2082C26
:1008E000F2DB07F10800C7B20AF1010000F0FF0ACD
:1008F00019F80A000028C2D1BDE8F09F2DE9F047A1
:1009000005460E46174698464FF0000907EB47008C
:100910004FEA400AB8F1000F01D1002400E0FF24A3
:100920007E2D02DD0025701CC6B231462846FFF739
:10093000AEFE4FF000090CE051460AF1010A0C4AE4
:10094000515C81EA0400FFF782FE09F1010000F02A
:10095000FF09B9F1060FEFDBBDE8F087000C01409D
:10096000A4812142008021423E36000866380008FA
:10097000340000202DE9F04707460E469046994680
:1009800000244FEA081AB9F1000F01D1002500E058
:10099000FF25782F02DD0027701CC6B2314638468D
:1009A000FFF775FE00240AE051460AF1010A9C4A4D
:1009B000515C81EA0500FFF74AFE601CC4B2082CB6
:1009C000F2DB701CC1B23846FFF761FE00240AE07A
:1009D00051460AF1010A924A515C81EA0500FFF78B
:1009E00036FE601CC4B2082CF2DBBDE8F0872DE9AE
:1009F000F04782460F469046994600244FEA481534
:100A0000B9F1000F01D1002600E0FF26394650461B
:100A1000FFF73DFE002408E08249495D81EA0600B7
:100A2000FFF715FE6D1C601CC4B2102CF4DB781CA3
:100A3000C1B25046FFF72BFE002408E07949495D1A
:100A400081EA0600FFF703FE6D1C601CC4B2102C87
:100A5000F4DBBDE8F0872DE9FC41074688461446E3
:100A60001E4600208DF805000A20B4FBF0F100FBC3
:100A7000114030308DF804000A20B4FBF0F4B4FBD0
:100A8000F0F100FB114030308DF803000A20B4FB78
:100A9000F0F4B4FBF0F100FB114030308DF80200AF
:100AA0000A20B4FBF0F4B4FBF0F100FB114030304D
:100AB0008DF801000A20B4FBF0F4B4FBF0F100FB68
:100AC000114030308DF8000000250AE01DF80500C7
:100AD000302803D120200DF8050000E003E0681C59
:100AE000C5B2042DF2DB00BF16B1012E0ED106E017
:100AF00000236A4641463846FFF777FE07E00023A9
:100B00006A4641463846FFF7AAFE00E000BF00BF34
:100B1000BDE8FC812DE9FF5F81468A46164698466E
:100B200000208DF80F002E208DF80C00002130469B
:100B300002F010FC05D286F000462D208DF808004A
:100B400002E020208DF80800304602F0CFFB04467A
:100B5000642104FB01F002F0E9FB334901903046C7
:100B600002F02CFC0090019902F0F4FC834602F0A4
:100B7000BDFBC7B20A20B4FBF0F100FB11403030DE
:100B80008DF80B000A20B4FBF0F4B4FBF0F100FB8D
:100B9000114030308DF80A000A20B4FBF0F404F163
:100BA0003000C0B28DF809000A2097FBF0F100FB7D
:100BB00011703030C0B28DF80E000A2097FBF0F0B3
:100BC000C7B207F13000C0B28DF80D0001250AE070
:100BD00002A8405D302803D1202002A9485500E03A
:100BE00003E0681CC5B2032DF2DB00BFB8F1000FB3
:100BF00003D0B8F1010F0ED106E0002302AA51463E
:100C00004846FFF7F2FD07E0002302AA5146484696
:100C1000FFF725FE00E000BF00BFBDE8FF9F00001A
:100C2000800500203A0000200000C84208B50121DC
:100C3000202000F031FF0420ADF8000010208DF8D6
:100C4000030003208DF802006946044800F068FCA8
:100C50000421024800F011FD08BD0000001401400D
:100C60007FB505460C460121082000F022FFADF8B3
:100C70000850ADF804400020ADF80A00ADF80600B9
:100C800001A90D4801F040F8012211460A4801F07F
:100C9000B2FB32208DF8000000208DF80100012009
:100CA0008DF802008DF80300684600F070FB01210A
:100CB000014801F085FB7FBD000C004010B502200B
:100CC00000F05BFA10BD704708B50121102000F05C
:100CD000E3FE3020ADF8000010208DF80300032063
:100CE0008DF802006946FE4800F01AFC3021FC48ED
:100CF00000F0C3FC08BD10B5F948006820F470008E
:100D0000F74908600846006840F440100860012078
:100D1000F4490860F449C1F89001FFF7CFFF0020C3
:100D2000F0490860FFF7CAFF0020EF49C1F89001C1
:100D300010BD10B5EA48006820F47000E84908606A
:100D40000846006840F4401008600020E549091F8B
:100D50000860E549C1F89401FFF7B0FF0120E149BF
:100D6000091F0860E049C1F89401FFF7A7FF10BD13
:100D700010B50024DA48006820F47000D8490860F3
:100D80000846006840F4000008600120D54908606A
:100D9000FFF794FF0120D449C1F89001FFF78EFFBF
:100DA00007E0601CC4B2FA2C03DDFFF7C2FF01208C
:100DB00010BDCC48803800680028F2D1C949091F0D
:100DC000086000BFF4E710B50020C649091F08609D
:100DD000C348006820F47000C149086008460068F4
:100DE00040F4401008600020BF49C1F89401FFF7AB
:100DF00065FF0120BB49091F0860FFF75FFF002066
:100E0000B949C1F8900110BD10B50020B549091FBE
:100E10000860B348006820F47000B14908600846D3
:100E2000006840F4401008600120AF49C1F8940107
:100E3000FFF744FF0120AB49091F0860FFF73EFFA1
:100E40000020A949C1F8900110BD70B50446A4481E
:100E5000006820F47000A24908600846006840F469
:100E60004010086000209F49091F0860002512E01B
:100E7000E0099C4908606006040E01209A49C1F807
:100E80009001FFF71BFF00209649091F0860FFF73C
:100E900015FF681CC5B2082DEADB70BD70B50546AC
:100EA00000248F48006820F470008D4908600846CF
:100EB000006840F400000860002615E00020894921
:100EC000091F0860FFF7FAFE01208749C1F8900169
:100ED0006006040E83488038006808B1601CC4B204
:100EE000FFF7ECFE701CC6B2082EE7DB15B9FFF762
:100EF0008BFF01E0FFF767FF204670BD70B5064627
:100F00000C461546FFF7F7FE5420FFF79EFFFFF74C
:100F10002FFF18B1FFF70DFF012070BD3046FFF71E
:100F200094FFFFF725FF2046FFF78FFFFFF720FF15
:100F300018B1FFF7FEFE0120EFE72846FFF785FF17
:100F4000FFF716FF18B1FFF7F4FE0120E5E7FFF702
:100F5000F0FE0020E1E770B50546FFF7CCFE542017
:100F6000FFF773FFFFF704FF2846FFF76EFFFFF759
:100F7000FFFEFFF7C0FE5520FFF767FFFFF7F8FE03
:100F80000120FFF78BFF04020020FFF787FF0443D7
:100F9000FFF7CFFE204670BD70B5054635B1012D77
:100FA0000FD0022D18D0032D2CD120E00020FFF708
:100FB000D2FFC0F30B040120FFF7CDFF40EA044449
:100FC00021E00220FFF7C7FFC0F30B040320FFF767
:100FD000C2FF40EA044416E00420FFF7BCFFC0F360
:100FE0000B040520FFF7B7FF40EA04440BE006209E
:100FF000FFF7B1FFC0F30B040720FFF7ACFF40EA97
:10100000044400E000BF00BF24F07044204670BDDF
:1010100010B5FFF758FEFFF757FE7E20FFF79BFF46
:10102000044645F24940844266D1FB22342108201F
:10103000FFF764FFFB2234210920FFF75FFFFB224B
:1010400034210A20FFF75AFFFB2234210B20FFF73F
:1010500055FF1B2200211020FFF750FF1B2200210B
:101060001120FFF74BFF1B2200211220FFF746FF44
:101070001B2200211320FFF741FF02222021142010
:10108000FFF73CFF022220211520FFF737FF022245
:1010900020211620FFF732FF022220211720FFF720
:1010A0002DFF002278211E20FFF728FF0022782143
:1010B0001F20FFF723FF002278212020FFF71EFFCB
:1010C000002278212120FFF719FF00221146192064
:1010D000FFF714FF0D22C2211B20FFF70FFF05E0D1
:1010E00000100140940122420000224201221421FA
:1010F0001A20FFF703FF01E0012010BD0020FCE7EC
:101100002DE9F04781464846FFF746FF0B49086046
:101110000846006802F014F807463A460B460848AD
:10112000084901F0B5FE054601F080FE044621465F
:10113000204602F043F9BDE8F08700005C0500207E
:10114000DBF97E6AB8A8AB4110B56FF0040000F07F
:1011500068F92E4800682E49B0FBF1F02D4908705F
:101160000846007800EB4001C1EBC0104FF6FF715C
:1011700001EAC0002849088010BD0146254A1278BE
:101180004A434FF0E0235A6100229A611A461269DD
:1011900042F001021A6100BF4FF0E022106900F036
:1011A00001021AB100F48032002AF5D04FF0E0229B
:1011B000126922F001024FF0E0231A6100229A61C5
:1011C00070470146144A12884A434FF0E0235A619F
:1011D00000229A611A46126942F001021A6100BFA8
:1011E0004FF0E022106900F001021AB100F48032E1
:1011F000002AF5D04FF0E022126922F001024FF0F0
:10120000E0231A6100229A6170470000200000204C
:1012100000127A00600500206205002010B54FF42E
:10122000A06000F0AFF810BD014600BF704700BFDE
:10123000504A128802F04002002AF9D0C2B24D4B47
:101240001B1D1A80704710B586B00446012144F278
:10125000040000F021FC4FF40070ADF814000320EE
:101260008DF8160018208DF8170005A9424800F0E7
:1012700057F94FF48060ADF8140004208DF8170082
:1012800005A93D4800F04CF925208DF80000032009
:101290008DF801008DF8020001208DF803006846EA
:1012A00000F075F801940020ADF80800ADF80A00D0
:1012B000ADF80C00ADF810000C20ADF80E0001A93F
:1012C0002C4801F09EFB012240F22551294801F0F3
:1012D00030FC0121274801F020FC06B010BD10B5FC
:1012E00040F22551234801F009FD10B3214801F0D7
:1012F00085FCC4B22148008800F40040C8B91F48EA
:10130000008800F4804060B10A2C03D000201B4903
:10131000088020E01948008840F400401749088000
:1013200019E00D2C06D11548008840F4804013497F
:10133000088010E011480088C0F30D0010490C54DB
:101340000E480088401C0D49088008460088C728C0
:1013500001DD0020088010BD10B504462146054877
:1013600001F048FC00BF0348008800F0400000285E
:10137000F9D010BD00380140000801406805002088
:101380009005002031490143314A1160704770B522
:10139000002100230F22C47804B32D4C246804F4E8
:1013A000E064C4F5E064210AC1F10403CA40447852
:1013B00004FA03F18478144021430901254C06788E
:1013C000A155047804F01F050124AC4005786D1187
:1013D000AD0005F1E025C5F8004109E0047804F00E
:1013E0001F050124AC401C4D0678761145F82640B7
:1013F00070BD1A4A0A400243154B1B1F1A60704702
:1014000039B1134A121D12680243114B1B1D1A6099
:1014100006E00F4A121D126882430D4B1B1D1A6015
:101420007047042808D14FF0E021096941F0040118
:101430004FF0E022116107E04FF0E021096921F04F
:1014400004014FF0E0221161704700000000FA052E
:101450000CED00E000E400E080E100E080FFFF1F11
:1014600010B50446CC48844208D10121042000F084
:101470002DFB0021042000F029FB46E0C7488442F0
:1014800008D10121082000F021FB0021082000F0F4
:101490001DFB3AE0C248844208D10121102000F02F
:1014A00015FB0021102000F011FB2EE0BD48844206
:1014B00008D10121202000F009FB0021202000F0AC
:1014C00005FB22E0B848844208D10121402000F009
:1014D000FDFA0021402000F0F9FA16E0B3488442FA
:1014E00008D10121802000F0F1FA0021802000F0D5
:1014F000EDFA0AE0AE48844207D10121801500F0E0
:10150000E5FA0021A01500F0E1FA10BD10B50121A7
:10151000084600F0DBFA0021012000F0D7FA10BDE8
:101520002DE9F0410246002500260020002300247A
:10153000002791F803C00CF00F0591F803C00CF0E0
:10154000100CBCF1000F03D091F802C04CEA050565
:1015500091F800C0BCF1000F31D0146800202BE0DE
:101560004FF0010C0CFA00F3B1F800C00CEA0306CE
:101570009E4220D183004FF00F0C0CFA03F7BC43BE
:1015800005FA03FC4CEA040491F803C0BCF1280FEF
:1015900006D14FF0010C0CFA00FCC2F814C00AE0AE
:1015A00091F803C0BCF1480F05D14FF0010C0CFAC3
:1015B00000FCC2F810C0401C0828D1D31460B1F858
:1015C00000C0BCF1FF0F34DD546800202EE000F1B4
:1015D000080C4FF0010808FA0CF3B1F800C00CEA4F
:1015E00003069E4221D183004FF00F0C0CFA03F743
:1015F000BC4305FA03FC4CEA040491F803C0BCF1B7
:10160000280F05D100F1080C08FA0CF8C2F8148074
:1016100091F803C0BCF1480F07D100F1080C4FF05E
:10162000010808FA0CF8C2F81080401C0828CED334
:101630005460BDE8F0814FF6FF7101800221817096
:101640000421C17070470246002093680B400BB123
:10165000012000E0002070470146886880B2704792
:1016600002460020D3680B400BB1012000E00020AF
:1016700070470146C86880B2704701617047416198
:1016800070470AB1016100E041617047C160704775
:101690004FF480320A43826181618261826982698A
:1016A000704702460020434B18684FF6807318407D
:1016B00040EA021008433F4B186070473E49C8613A
:1016C0007047F0B50A46002300240021002500F0F1
:1016D0000046B6F1004F02D1364EF16901E0354EB9
:1016E0007168C0F3034583B200F44016B6F5401F9D
:1016F00008D121F070612F4E766826F070662D4F6C
:101700007E6012E000F48016B6F5801F06D1032635
:1017100006FA05F4A14341F0706106E0460D36017A
:1017200003FA06F6B14341F0706122B1460D36016D
:1017300003FA06F6314300F00046B6F1004F02D13D
:101740001C4EF16101E01B4E7160F0BD30B500220E
:101750008B071C0F0F2303FA04F2164B08338C106F
:1017600053F824309343134C08348D1044F825303B
:1017700023468C1053F824308C07240F00FA04F40D
:1017800023430C4C08348D1044F8253030BD0A49F1
:10179000DC3108607047000000080140000C014087
:1017A000001001400014014000180140001C0140DD
:1017B000002001400000014000002042DF48006896
:1017C00040F00100DD49086008464068DC490840F7
:1017D000DA49486008460068DA490840D749086095
:1017E0000846006820F4802008600846406820F41D
:1017F000FE0048604FF41F0088607047CF490968B9
:1018000021F48031CD4A11601146096821F480210C
:101810001160B0F5803F03D0B0F5802F0ED106E007
:10182000C649096841F48031C44A116007E0C349E0
:10183000096841F4A021C14A116000E000BF00BF67
:10184000704710B501460022002300204A11012AEA
:1018500002D1BA4C236806E0022A02D1B74C236AAF
:1018600001E0B64C636A01F01F02012494401C4061
:101870000CB1012000E0002010BD38B50020009020
:101880000024002500BF3120FFF7DBFF054600984C
:10189000401C00900098B0F5A06F01D0002DF2D050
:1018A0003120FFF7CEFF08B1012400E000242046DC
:1018B00038BD01460020A14A106820F0F80040EA37
:1018C000C10010607047A0490860704702460020C0
:1018D0009A4B586820F47C1042EA01031843974B56
:1018E0005860704798490866704701460020934A3F
:1018F000506820F003000843506070478F484068EC
:1019000000F00C007047014600208C4A506820F01F
:10191000F00008435060704701460020874A506835
:1019200020F4E06008435060704701460020834A7D
:10193000506820F4605040EAC1005060704729B1FF
:101940007E4A527A02437D4B5A7204E07B4A527AB5
:1019500082437A4B5A7270477B49D831086070478E
:1019600001460020754A506820F44040084350600A
:1019700070470021714A20321170704A82F820109D
:10198000012802D004280AD104E001216B4A203248
:10199000117005E00521694A2032117000E000BF96
:1019A00000BF70476949086070476449096A01438C
:1019B000624A11627047654944390860704730B522
:1019C00000210022002400235C4D6D6805F00C010D
:1019D00021B1042905D0082923D105E05C4D05601B
:1019E00022E05B4D05601FE0544D6D6805F47012F8
:1019F000524D6D6805F48034022505EB92421CB906
:101A0000544D554305600BE04C4D6D6805F40035B1
:101A10001DB1504D5543056002E04D4D55430560E5
:101A200002E04B4D056000BF00BF444D6D6805F0FE
:101A3000F0010909484D6B5C0568DD4045603F4D8C
:101A40006D6805F4E061090A434D6B5C4568DD4053
:101A500085603A4D6D6805F46051C90A3E4D6B5C76
:101A60004568DD40C560354D6D6805F44041890B22
:101A70003A4D6B5CC568B5FBF3F5056130BD29B126
:101A80002E4A526902432D4B5A6104E02B4A526997
:101A900082432A4B5A61704729B1284A926902430E
:101AA000264B9A6104E0254A92698243234B9A614E
:101AB000704729B1214AD2690243204BDA6104E020
:101AC0001E4AD26982431D4BDA61704729B11B4A15
:101AD000D2680243194BDA6004E0184AD2688243A4
:101AE000164BDA60704729B1144A12690243134B4E
:101AF0001A6104E0114A12698243104B1A6170475F
:101B000012494039086070470F49C86470470B4953
:101B1000C87170470948406A40F0807007494862C0
:101B2000704701460020054A92680A400AB1012028
:101B300000E00020704701498872704700100240A1
:101B40000000FFF8FFFFF6FE000042428004424220
:101B500000127A0000093D006A0500207A05002085
:101B600010B50446FE48844208D10121C014FFF795
:101B7000ADFF0021E014FFF7A9FFC4E0B4F1804FEE
:101B800008D101210846FFF7AEFF00210120FFF731
:101B9000AAFFB8E0F348844208D101210220FFF7F0
:101BA000A2FF00210220FFF79EFFACE0EE48844236
:101BB00008D101210420FFF796FF00210420FFF740
:101BC00092FFA0E0E948844208D101210820FFF7F4
:101BD0008AFF00210820FFF786FF94E0E448844252
:101BE00008D101211020FFF77EFF00211020FFF710
:101BF0007AFF88E0DF48844208D101212020FFF7E6
:101C000072FF00212020FFF76EFF7CE0DA4884425B
:101C100008D101214014FFF759FF00216014FFF79C
:101C200055FF70E0D548844209D10121C804FFF76F
:101C30004DFF00214FF40020FFF748FF63E0D0483C
:101C4000844209D101210805FFF740FF00214FF42C
:101C50008010FFF73BFF56E0CA48844209D10121BA
:101C60004805FFF733FF00214FF40010FFF72EFF68
:101C700049E0C548844208D101214020FFF733FFE5
:101C800000214020FFF72FFF3DE0C048844208D1EB
:101C900001218020FFF727FF00218020FFF723FF8D
:101CA00031E0BB48844208D101218015FFF71BFFBA
:101CB0000021A015FFF717FF25E0B648844209D19F
:101CC00001210804FFF702FF00214FF48030FFF7E5
:101CD000FDFE18E0B048844209D101214804FFF715
:101CE000F5FE00214FF40030FFF7F0FE0BE0AB48AB
:101CF000844208D101218804FFF7E8FE00214FF457
:101D00008020FFF7E3FE10BD00220288944B98422A
:101D10000ED0994B98420BD0B0F1804F08D0914B28
:101D2000984205D0904B984202D0904B984204D1F3
:101D30004FF68F731A404B881A438D4B984207D049
:101D40008C4B984204D04FF6FF431A40CB881A437D
:101D500002808B8883850B880385814B98420BD04A
:101D6000854B984208D08B4B984205D08A4B9842BD
:101D700002D08A4B984201D10B7A038601238382D9
:101D8000704770B5002400220023058C4FF6FE76C4
:101D900035400584028C8388048B4FF68F752C4068
:101DA000B51E2C400D882C43751E2A400D892A43F0
:101DB0004D882A436A4DA8420BD06F4DA84208D0E7
:101DC000744DA84205D0744DA84202D0734DA8426C
:101DD00013D14FF6F7752A404D892A434FF6FB750C
:101DE0002A408D882A434FF6FF652B404FF6FF555A
:101DF0002B408D892B43CD892B4383800483CD8851
:101E00008586028470BD70B5002400220023058CF5
:101E10004FF6EF7635400584028C8388048B48F6B4
:101E2000FF752C404FF6FF452C400D884FF6FF768E
:101E300006EA05252C434FF6DF752A400D8906EA90
:101E400005152A434D8806EA05152A43444DA84244
:101E500002D0494DA8421DD14FF67F752A404D89C9
:101E60004FF6FF7606EA05152A434FF6BF752A405E
:101E70008D8806EA05152A434FF6FF352B404FF2B1
:101E8000FF752B408D8906EA85052B43CD8906EA2F
:101E900085052B4383800483CD880587028470BD2C
:101EA00070B5002400220023058C4FF6FF663540F4
:101EB0000584028C8388848B4FF68F752C404FF6F7
:101EC000FC752C400D882C434FF6FF552A400D8998
:101ED0004FF6FF7606EA05252A434D8806EA0525D2
:101EE0002A431F4DA84202D0234DA8421DD14FF2D4
:101EF000FF752A404D894FF6FF7606EA05252A43ED
:101F00004FF6FF352A408D8806EA05252A434EF60E
:101F1000FF752B404DF6FF752B408D8906EA0515A0
:101F20002B43CD8906EA05152B4383808483CD8816
:101F30008587028470BD70B5002200230024058CC3
:101F40004EF6FF7635400584038C8488828B48F6F4
:101F5000FF752A404FF6FF452A400D8820E000001B
:101F6000002C01400004004000080040000C00402C
:101F7000001000400014004000340140004C0140BB
:101F8000005001400054014000180040001C004077
:101F90000020004000400140004401400048014052
:101FA0004FF6FF7606EA05252A434DF6FF752B40CE
:101FB0000D8906EA05352B434D8806EA05352B4386
:101FC000FA4DA84202D0FA4DA84208D14BF6FF754F
:101FD0002C408D894FF6FF7606EA85152C438480C8
:101FE0008283CD88A0F84050038470BD828B4FF26D
:101FF000FF331A408283828B4FF6FF7303EA01237B
:102000001A4382837047F0B50C4615460022002122
:102010000026078C4EF6FF7C07EA0C070784828BAC
:10202000018C4FF6FF7707EA043640F6FF473A4047
:102030004FF6FF7707EA05273A434FF6FF7707EA9F
:1020400003373A43D94FB8420ED0D94FB8420BD0DC
:10205000B0F1804F08D0D74FB84205D0D64FB84224
:1020600002D0D64FB84206D14DF6FF77394046F43C
:102070008057394305E047F6FF57394044F480570D
:10208000394382830184F0BD828B4FF6F3731A408B
:102090008283828B0A4382837047F0B50C461546D3
:1020A000002200210026078C4FF6FF6C07EA0C0780
:1020B0000784828B018C4FF6FF7707EA04264FF6E0
:1020C0000C773A404FF6FF7707EA03172F433A435E
:1020D000B64FB8420ED0B64FB8420BD0B0F1804FD9
:1020E00008D0B44FB84205D0B34FB84202D0B34F76
:1020F000B84206D14FF6FF57394046F4807739434E
:1021000005E04FF2FF57394044F48077394382832A
:102110000184F0BD028B4FF2FF331A400283028B21
:102120004FF6FF7303EA01231A4302837047F0B5A9
:102130000C461546002200210026078C4FF6EF7C46
:1021400007EA0C070784028B018C4FF6FF7707EA3A
:10215000041640F6FF473A404FF6FF7707EA033789
:102160003A434FF6FF7707EA05273A438F4FB842C5
:102170000ED08F4FB8420BD0B0F1804F08D08D4FAA
:10218000B84205D08C4FB84202D08C4FB84206D12D
:102190004FF6DF77394046F01007394305E04FF638
:1021A0005F77394044F01007394302830184F0BD62
:1021B000028B4FF6F3731A400283028B0A430283A9
:1021C0007047F0B50C46154600220021068C4FF6EC
:1021D000FE773E400684028B018C4FF60C7632402F
:1021E0007E1C06EA03162E433243704EB0420ED0D8
:1021F0006F4EB0420BD0B0F1804F08D06D4EB04260
:1022000005D06D4EB04202D06C4EB04206D14FF6B2
:10221000FD76314044F00106314305E04FF6F57696
:10222000314044F00106314302830184F0BD70B5B2
:1022300005460C465D4885420ED05D4885420BD070
:10224000B5F1804F08D05B48854205D05A48854299
:1022500002D05A48854200D100E000BF208850B922
:102260002389A28861882846FFF7ABFFE1882846CA
:10227000FFF79EFF25E0208804280AD12389A28841
:1022800061882846FFF753FFE1882846FFF742FFA1
:1022900017E0208808280AD12389A2886188284667
:1022A000FFF7FBFEE1882846FFF7EEFE09E02389F1
:1022B000A28861882846FFF7A6FEE1882846FFF736
:1022C00095FE70BD2DE9F04105460C46002601271C
:1022D000608808B9022600E00026A088012801D104
:1022E000022700E001272088A0B92389A2886188FD
:1022F0002846FFF766FFE1882846FFF759FF238944
:102300003A4631462846FFF712FFE1882846FFF794
:1023100001FF13E02389A28861882846FFF707FFA1
:10232000E1882846FFF7F6FE23893A4631462846DB
:10233000FFF747FFE1882846FFF73AFFBDE8F08145
:102340000A884B881A438B881A43CB881A430B8917
:102350001A434B891A438B891A43A0F844207047CB
:102360004FF6FF71818000210180C18041800172A0
:1023700070470021018041808180C18001814181BD
:102380008181C181704700210180418001218180CC
:102390000021C1800181704700210180418081803E
:1023A000C18001814181818170470000002C014082
:1023B000003401400004004000080040000C0040D0
:1023C00021B1028842F00102028004E002884FF647
:1023D000FE731A400280704731B1B0F8442042F4D5
:1023E0000042A0F8442005E0B0F84420C2F30E02F9
:1023F000A0F8442070471AB183890B43838102E01F
:1024000083898B43838170478182704741EA02034D
:10241000A0F8483070471AB183890B43838102E0EA
:1024200083898B438381704701894FF6F87211408D
:10243000018170470A46002101894FF68F731940C8
:1024400011430181704730B504460D4629462046A8
:10245000FFF7F0FF208940F00700208130BD2DE913
:10246000F04104460D4616461F46602D06D13B46F8
:10247000012231462046FFF75AFE05E03B46012285
:1024800031462046FFF79DFE29462046FFF7D2FF42
:10249000208940F007002081BDE8F08130B50C466E
:1024A00000210189C9B24FF6FF7505EA03251543DE
:1024B00025432943018130BD2DE9F04105460E46F3
:1024C00017469846002443463A4631462846FFF7C9
:1024D000E5FF2C894FF6F870044044F007044FF6EE
:1024E0008F70044044F070042C81BDE8F081F0B599
:1024F00004460D4616461F463B46324629462046B0
:10250000FFF7CCFF208940F480402081F0BD018599
:10251000828270470A46002101884FF68F73194066
:10252000114301807047F0B50C4615461E46002148
:10253000002200230189028B038C4FF6F877394083
:1025400021434FF6FC473A4040F201173A434FF619
:10255000DD773B404FF6FF7707EA06172F433B43F3
:10256000018102830384F0BD0A460021018B4FF6EE
:102570008F7319401143018370470A460021018B74
:1025800048F6FF7319404FF6FF7303EA022319431D
:10259000018370470A460021818B4FF68F731940E3
:1025A0001143818370470A460021818B48F6FF73EF
:1025B00019404FF6FF7303EA0223194381837047E2
:1025C00021B1028842F08002028004E002884FF6C6
:1025D0007F731A400280704721B1828842F0040262
:1025E000828004E082884FF6FB731A408280704735
:1025F00021B1828842F00802828004E082884FF68E
:10260000F7731A408280704721B1828842F001023C
:10261000828004E082884FF6FE731A408280704701
:102620000A460021018B4FF6F773194011430183CD
:1026300070470A460021018B4FF2FF7319404FF695
:10264000FF7303EA02231943018370470A460021FE
:10265000818B4FF6F77319401143818370470A4607
:102660000021818B4FF2FF7319404FF6FF7303EA8D
:1026700002231943818370470A460021018B4FF6DC
:10268000FB7319401143018370470A460021018BF7
:102690004FF6FF3319404FF6FF7303EA0223194345
:1026A000018370470A460021818B4FF6FB73194066
:1026B0001143818370470A460021818B4FF6FF3317
:1026C00019404FF6FF7303EA0223194381837047D1
:1026D0000A460021018B4FF67F7319401143018395
:1026E00070470A460021018BC1F30E014FF6FF73BC
:1026F00003EA02231943018370470A460021818BB4
:102700004FF67F7319401143818370470A460021B9
:10271000818BC1F30E014FF6FF7303EA02231943C5
:10272000818370470A460021018C4FF6FD731940E2
:102730001143018470470A460021018C4FF6F7735C
:1027400019401143018470470A460021018C4FF65D
:10275000DF7319404FF6FF7303EA02131943018434
:1027600070470A460021018C4FF67F7319404FF6DF
:10277000FF7303EA02131943018470470A460021DC
:10278000018C4FF6FF5319404FF6FF7303EA022303
:102790001943018470470A460021018C4FF2FF73F0
:1027A00019404FF6FF7303EA02231943018470476F
:1027B0000A460021018C4DF6FF7319404FF6FF7356
:1027C00003EA023319430184704730B50023012422
:1027D0008C40A3B2048C9C430484048C02FA01F55F
:1027E000ADB22C43048430BD30B5002304248C40AA
:1027F000A3B2048C9C430484048C02FA01F5ADB2AC
:102800002C43048430BD70B50346002000241846D4
:10281000183001258D40ACB21D8CA5431D8409B133
:10282000082909D100EB6100056825F070050560F5
:102830000568154305600EE00D1FC5F34E052844DD
:10284000056825F4E045056005684FF6FF7606EA61
:1028500002263543056070BD21B1028842F00202B4
:10286000028004E002884FF6FD731A400280704730
:1028700021B1028842F00402028004E002884FF68F
:10288000FB731A400280704721B1828842F08002B7
:10289000828004E082884FF67F731A4082807047FE
:1028A00002884FF6F7731A40028002880A430280BA
:1028B000704782884FF68F731A40828082880A435D
:1028C0008280704702894FF6F8731A4002810289AC
:1028D0000A430281704702894FF67F731A400281D2
:1028E00002890A430281704781847047818570475D
:1028F000818670470187704781877047A0F8401034
:10290000704702884FF6FF431A40028002880A434C
:10291000028070470146888E70470146088F7047D5
:102920000146888F70470146B1F840007047014664
:10293000888C70470146088D704702460020138A34
:102940000B400BB1012000E000207047CA43028217
:10295000704730B50246002000230024158A05EA9E
:102960000103958905EA010413B10CB1012000E0CF
:10297000002030BDCA4302827047000010B50446F3
:10298000FB48844209D101218803FFF79FF8002109
:102990004FF48040FFF79AF832E0F648844209D1BC
:1029A00001214804FFF79FF800214FF40030FFF7A2
:1029B0009AF825E0F048844209D101218804FFF704
:1029C00092F800214FF48020FFF78DF818E0EB48D3
:1029D000844209D10121C804FFF785F800214FF492
:1029E0000020FFF780F80BE0E548844208D1012180
:1029F0000805FFF778F800214FF48010FFF773F80F
:102A000010BD2DE9F04786B005460E460024A246CB
:102A100000BFA1460027B08900B100BF2F462C8A15
:102A20004CF6FF700440F08804432C82AC894EF6CB
:102A3000F3100440B0883189084371890843044386
:102A4000AC81AC8A4FF6FF400440B0890443AC82AD
:102A500001A8FEF7B4FFC648874202D1DDF810A0F6
:102A600001E0DDF80CA0A88900F4004040B10AEBB9
:102A7000CA0000EB0A1031684900B0FBF1F807E02A
:102A80000AEBCA0000EB0A1031688900B0FBF1F8CC
:102A90006420B8FBF0F004012009642101FB1089D7
:102AA000A88900F4004040B1322000EBC900B0FB1F
:102AB000F1F000F00700044308E0322000EB0910B9
:102AC0006421B0FBF1F000F00F0004432C8106B04C
:102AD000BDE8F0874FF41651016000218180C1806C
:102AE00001810C21418100218181704710B502468E
:102AF0000020108A4FF2FF0318400B884C882343B4
:102B00008C882343CC8823431843108210BD0021B6
:102B1000018041808180C180704721B1828942F467
:102B20000052828104E082894DF6FF731A4082814F
:102B30007047F0B50346002400260025002040F62B
:102B40006A17B94200D100BF1846C1F3421401F020
:102B50001F06012707FA06F5012C01D10C3004E00D
:102B6000022C01D1103000E014301AB107682F4355
:102B7000076002E00768AF430760F0BD1AB1838ABF
:102B80000B43838202E0838A8B4383827047028AED
:102B90004FF6F0731A400282028A0A43028270479B
:102BA00082894FF2FF731A40828182890A438281AF
:102BB000704721B1828942F00202828104E0828959
:102BC0004FF6FD731A4082817047028A4FF6DF7319
:102BD0001A400282028A0A430282704721B1028AA5
:102BE00042F48042028204E0028A4BF6FF731A40EC
:102BF00002827047C1F308028280704701468888CC
:102C0000C0F308007047818941F00101818170475C
:102C1000028BD2B20283028B42EA01220283704706
:102C2000028B02F47F420283028B0A4302837047C5
:102C300021B1828A42F02002828204E0828A4FF629
:102C4000DF731A408282704721B1828A42F01002FB
:102C5000828204E0828A4FF6EF731A4082827047C4
:102C600021B1828A42F00802828204E0828A4FF611
:102C7000F7731A408282704721B1828942F4004280
:102C8000828103E08289C2F30E028281704721B102
:102C9000828A42F40062828204E0828A4FF2FF73E9
:102CA0001A4082827047828A4FF6FB731A408282F2
:102CB000828A0A438282704721B1828A42F00202EC
:102CC000828204E0828A4FF6FD731A408282704746
:102CD00002460020B1F5007F00D100BF13880B40F1
:102CE0000BB1012000E00020704701F40072B2F542
:102CF000007F00D100BFCA430280704770B5024612
:102D0000002400230025002040F66A16B14200D1BD
:102D100000BFC1F3421501F01F03012606FA03F3B9
:102D2000012D02D19689334006E0022D02D1168A88
:102D3000334001E0968A33400C12012606FA04F46F
:102D40001688344013B10CB1012000E0002070BDA2
:102D500010B50022002340F66A14A14200D100BF42
:102D60000A1201249440A3B2DC43048010BD000089
:102D7000003801400044004000480040004C004042
:102D8000005000400948804709480047FEE7FEE739
:102D9000FEE7FEE7FEE7FEE7FEE7FEE7FEE7FEE70B
:102DA00004480549054A064B704700005F040008C7
:102DB00031010008B8060020B80C0020B808002037
:102DC000B8080020704770477047704770477546D5
:102DD00000F028F8AE4605006946534620F007008B
:102DE000854618B020B5FFF7DBFFBDE820404FF067
:102DF00000064FF000074FF000084FF0000B21F0E5
:102E00000701AC46ACE8C009ACE8C009ACE8C009B1
:102E1000ACE8C0098D4670470446AFF300802046F9
:102E2000FDF7EDF9004870475806002021F00042F8
:102E3000A2F16052B2F5801F01F0004328BFD2F129
:102E40007F6C0BD95FEA001C43EAC20242EB507070
:102E500018BF704728BF20F001007047B2F5801FEF
:102E6000BCBF184670474FEA410C1CF5001F02D248
:102E7000084600F06ABB70B500F075F900000089E3
:102E8000FFF7F6BF4FF00040A0F58000704700004C
:102E90002DE9C04130B4DFF8A0C23CEA111418BFDC
:102EA0003CEA131400F0EC8081EA03051CEA1114DB
:102EB00044EAD57418BF1CEA131500F0C780A4EBD0
:102EC00005044FF0004545EAC12145EAC32341EA24
:102ED000505143EA525304F17F74994204F500348F
:102EE0004FEAC0204FEAC22208BF904200F09C8007
:102EF0004FEA13650FF24016765D4FEA134506FB65
:102F000005F7C7F1807706FB07F74FEAD737A7FB2E
:102F100003687642C8F58038A7FB06CE38BFA8F113
:102F2000010807FB08E64FF0000EA6FB028CE6FB4B
:102F300003CEDCF1000CCEF1004E38BFAEF1010E35
:102F4000A6FB0C584FF000074FF00005E6FB0E877C
:102F5000A1FB08C6A0FB07CE16EB0E0645F1000547
:102F6000E1FB076515F1E04E7EBFA4F580345FEA12
:102F700046066D4116F1800745F100054FEA172717
:102F80004FEA066647EA0567A6F1DE46B6F1805FBE
:102F90004FEA15251FD9384624F0010C05EBC47102
:102FA000BCF1FE6F01EB0C1102D8F0BCBDE8008152
:102FB00024425CBF01F5801E9EEAC47F02D4F0BCAF
:102FC000BDE80081244238D4F0BCA1F1C041BDE885
:102FD000004100F016B94FEAD22242EA43524FEACA
:102FE000D323A7FB02864FEAD02040EA415007FBDB
:102FF00003661EEA0E0F4FEAD12105FB026658BF99
:10300000A6EB0056B6EB00564FEA520E4EEAC37ED0
:1030100018EB0E0E56EB530EBDD518EB02085E41B1
:103020007F1C55F10005B6E74FF480154FF00007FF
:103030004FF000064FF00008ADE7F0BC4FF0000085
:1030400001F1C04101F00041BDE8008111EA0C1F0F
:103050000CEA131500D00CE013EA0C1F00F02580D9
:103060004FF00000F0BC81EA030101F00041BDE82F
:103070000081F0BCBDE8004181EA030100F0C1B865
:10308000F0BCBDE8004170B500F06DF8097EFC3E73
:1030900000F007B881EA03014FF0000001F00041A1
:1030A000704781EA030100F0ACB8F0BCBDE8004114
:1030B0004FF0000021497047FFFDFBF9F7F5F4F2EE
:1030C000F0EEEDEBE9E8E6E4E3E1E0DEDDDBDAD8C3
:1030D000D7D5D4D3D1D0CFCDCCCBCAC8C7C6C5C421
:1030E000C2C1C0BFBEBDBCBBBAB9B8B7B6B5B4B338
:1030F000B2B1B0AFAEADACABAAA9A8A8A7A6A5A423
:10310000A3A3A2A1A09F9F9E9D9C9C9B9A999998E6
:103110009797969595949393929191908F8F8E8E89
:103120008D8C8C8B8B8A8989888887878685858416
:1031300084838382828181800000FF070000F87F02
:10314000B0FA80F310FA03F10AD0C3F11D0303F5BE
:1031500080634FEA41504FEA035202EBD12170479E
:103160004FF0000070470EF1020E2EF0030E5EF8D5
:10317000046B364205D4012A43EB030515F5001F05
:1031800012D8012841EB010C1CF5001F0CD80ED100
:103190004FEAD17C15F5001F0CEB4C0C0CF1020C26
:1031A00008BF4CEBD37C04E04FF0080C01E04FEA81
:1031B000D37C0CEB4C0526FA05F606F00706B6F1B3
:1031C000040C06D20EEB860CBDE870404CF0010CEE
:1031D0006047DFE80CF0090B02024FF000414FF0AE
:1031E0000000A1F5002170BD19461046012851EBE1
:1031F000010418BFD4F5001484BF002001F0004181
:1032000070BD0808A0F500114FEA310170470000B9
:1032100090EA010F48BF81F0004100F1A281421AFB
:103220003CBF801A89184FEAD0524FF07F4C1CEAFD
:10323000410FA2EBD15318BF9CEA026F00F03B8014
:103240004FF0004C4CEA00204CEA012121FA03FC2B
:1032500010EB0C0C1ED202F1FF325FEA1C2040EB97
:10326000C25038BF70471CF07F0F4FEA400C18BFA8
:10327000BCF17F4F38BF7047C3F12003994008BFAE
:1032800020F00100BCF17F4F38BF7047A0F1C04073
:1032900000F05BB94FEA3C00000A40EBC25028BF87
:1032A0001CF0FF0F4FEA400CE6D018BFBCF17F4F77
:1032B00038BF7047EAE79CEA026F05D010EA5C0F5E
:1032C00008BF00F00040704710B500F0F8F800BFEC
:1032D00064FBBE3E401058BFC0F14040491058BF8B
:1032E000C1F140418142EFF300807047C10DD1F13F
:1032F0009E0206DB4FEA002343F0004323FA02F06C
:103300007047004207D54FEA4001B1F1FE4F02D2AB
:103310004FF00000704710B500F0D1F849922480BA
:10332000002070476FEA200070470000B0FA80F379
:1033300010FA03F2C3F19D030AD0D90501EB122064
:10334000530638BF704700F1010008BF20F00100AC
:103350007047000050EA010C00F113801CF5000FCB
:1033600058BFBCF5000F01D48842704707D710F54D
:10337000000F58BF11F5000F15D4884270478942DD
:1033800070471CF5000F04D5BCF5000FF7D581423E
:1033900070474FF0807C1CEB400F38BF1CEB410F97
:1033A00001D28142704710B500F089F8922449009B
:1033B0004FF000504FF08051FFF78CBF4FF47F0C5F
:1033C0001CEAD0121EBF1CEAD11392EA0C0F93EA3A
:1033D0000C0F00F0478090EA010F48BF42F4807262
:1033E0004FF0004C4CEA00204CEA012102EB0302B2
:1033F000A0FB0113A2F50002002918BF43F001034E
:103400005B0028BF4FEA330342EB22425FEA132CF2
:103410004CEBC2502EBFBCEB436FB2F57C0F704734
:103420004FEA036CBCF1004F08BF20F00100B2F579
:103430007C0F38BF70470BD582F0FF0212F5803F3A
:10344000C8BF704700F1C040D8BF00F000407047CF
:1034500000F5000C5FEA4C0C48BF7047B0F1C0406B
:1034600000F073B890EA010F0CEAD11348BF42F4A0
:103470008072624538BF634504D280EA010000F0E3
:103480000040704710B500F01AF800BF8900013EF7
:1034900000F007B800F009B85FEA410C5FEA1C6C65
:1034A00008D080EA010000F050B85FEA400C5FEA03
:1034B0001C6CF6D14FF00040A0F5800070470EF173
:1034C000020E2EF0030E5EF8044B244204D44FEAA1
:1034D0004102B2F17F4F11D84FEA4003B3F17F4F61
:1034E0000CD80ED14FEAD07CB2F17F4F0CEB4C0CD4
:1034F0000CF1020C08BF4CEBD17C04E04FF0080C3F
:1035000001E04FEAD17C0CEB4C0324FA03F404F005
:103510000704B4F1040C06D20EEB840CBDE8104095
:103520004CF0010C6047DFE80CF0070802024FF096
:103530000040A0F5800010BD0846420018BFD2F13F
:10354000807288BF00F0004010BDFF2141EAD050DA
:10355000C005704790EA010F48BF81F000413FF578
:103560005EAE421A04D882F00042A0EB0200114481
:103570004FEAD0524FF07F4C1CEA410FA2EBD153DF
:1035800018BF9CEA026F4AD04FF0004C4CEA002072
:103590004CEA012121FA03FCB0EB0C0C0FD412F021
:1035A000FE0F36D05FEA4C001DD5001240EBC25032
:1035B00038BF70471CF03F0F18BF70470BE0A2F1F7
:1035C00001025FEA1C2040EBC25038BF70471CF07C
:1035D0007F0F18BF7047C3F12003994014BF401EEE
:1035E00020F00100704780084FEA122308BF70479F
:1035F000B0FA80FCA2EB0C02CCF1280C60FA0CF0C3
:1036000093EA122F04BF00EBC25070474FEAC37019
:103610007047130A5FEADC1008BF7047F6E79CEAC0
:10362000026F04D010EA5C0F08BF0020704710B58D
:10363000FFF745FF40DFF63E81F000407047000095
:10364000000000000000002F00000000070007003D
:1036500000147F147F1400242A7F2A120062640859
:1036600013230036495522500000050300000000D6
:103670001C224100000041221C000014083E0814D6
:103680000008083E0808000000A0600000080808C4
:103690000808000060600000002010080402003EDE
:1036A0005149453E0000427F400000426151494679
:1036B000002141454B31001814127F100027454569
:1036C0004539003C4A49493000017109050300367B
:1036D0004949493600064949291E0000363600008E
:1036E0000000563600000008142241000014141493
:1036F000141400004122140800020151090600328E
:103700004959513E007C1211127C007F49494936CB
:10371000003E41414122007F4141221C007F494936
:103720004941007F09090901003E4149497A007F6A
:103730000808087F0000417F4100002040413F0110
:10374000007F08142241007F40404040007F020C6F
:10375000027F007F0408107F003E4141413E007F10
:1037600009090906003E4151215E007F09192946D9
:103770000046494949310001017F0101003F4040B5
:10378000403F001F2040201F003F4038403F006363
:103790001408146300070870080700615149454385
:1037A00000007F41410000552A552A550000414143
:1037B0007F0000040201020400404040404000003D
:1037C00001020400002054545478007F48444438D7
:1037D00000384444442000384444487F003854545E
:1037E000541800087E0901020018A4A4A47C007FDC
:1037F000080404780000447D4000004080847D007F
:10380000007F102844000000417F4000007C041825
:103810000478007C0804047800384444443800FCF0
:10382000242424180018242418FC007C080404080C
:1038300000485454542000043F444020003C404081
:10384000207C001C2040201C003C4030403C0044B8
:1038500028102844001CA0A0A07C004464544C44C0
:1038600014141414141400000000000000000000E0
:10387000000000000000000000F800000000000050
:1038800000333000000000100C06100C0600000091
:1038900000000000000040C07840C0784000043FB5
:1038A00004043F040400007088FC08300000001885
:1038B00020FF211E0000F008F000E01800000021A9
:1038C0001C031E211E0000F00888700000001E214D
:1038D00023241927211010160E00000000000000FC
:1038E000000000000000000000E0180402000000DA
:1038F00000071820400000020418E000000000400B
:10390000201807000000404080F080404000020284
:10391000010F01020200000000F0000000000101A0
:10392000011F01010100000000000000000080B044
:103930007000000000000000000000000000000116
:103940000101010101010000000000000000003041
:1039500030000000000000000000806018040060DB
:1039600018060100000000E010080810E000000F39
:10397000102020100F00001010F8000000000020A0
:10398000203F2020000000700808088870000030E8
:103990002824222130000030088888483000001890
:1039A000202020110E000000C02010F800000007A9
:1039B0000424243F240000F808888808080000191F
:1039C000212020110E0000E0108888180000000F50
:1039D000112020110E0000380808C8380800000027
:1039E000003F000000000070880808887000001C7C
:1039F000222121221C0000E010080810E000000035
:103A0000312222110F00000000C0C00000000000A1
:103A100000303000000000000080000000000000C6
:103A200080600000000000008040201008000001BD
:103A30000204081020004040404040404000040480
:103A4000040404040400000810204080000000204A
:103A5000100804020100007048080808F000000087
:103A6000003036010000C030C828E810E000071818
:103A7000272423140B000000C038E0000000203C85
:103A800023020227382008F8888888700000203F29
:103A9000202020110E00C030080808083800071840
:103AA00020202010080008F808080810E000203F37
:103AB000202020100F0008F88888E8081000203F18
:103AC00020202320180008F88888E8081000203FEC
:103AD000200003000000C030080808380000071864
:103AE0002020221E020008F808000008F808203FE5
:103AF000210101213F20000808F8080800000020EB
:103B0000203F2020000000000808F8080800C080BE
:103B100080807F00000008F888C028180800203F37
:103B200020012638200008F8080000000000203F8F
:103B300020202020300008F8F800F8F80800203F86
:103B4000003F003F200008F830C00008F808203F80
:103B5000200007183F00E01008080810E0000F10D0
:103B6000202020100F0008F808080808F000203F67
:103B7000210101010000E01008080810E0000F1802
:103B8000242438504F0008F8888888887000203F27
:103B90002000030C30200070880808083800003826
:103BA000202121221C00180808F80808180000002D
:103BB000203F2000000008F808000008F808001F57
:103BC000202020201F000878880000C83808000046
:103BD00007380E010000F80800F80008F800033C60
:103BE0000700073C03000818688080681808203028
:103BF0002C03032C30200838C800C8380800000007
:103C0000203F2000000010080808C83808002038AD
:103C1000262120201800000000FE02020200000001
:103C2000007F40404000000C30C000000000000059
:103C300000010638C00000020202FE000000004041
:103C400040407F0000000000040202020400000067
:103C50000000000000000000000000000000808064
:103C6000808080808080000202040000000000004C
:103C7000000000000000000080808080000000192B
:103C8000242222223F2008F8008080000000003F0C
:103C9000112020110E000000008080800000000E26
:103CA000112020201100000000808088F800000E04
:103CB000112020103F200000808080800000001F25
:103CC000222222221300008080F088888818002099
:103CD000203F202000000000808080808000006B5A
:103CE00094949493600008F8008080800000203F46
:103CF000210000203F200080989800000000002054
:103D0000203F20200000000000809898000000C0A4
:103D10008080807F000008F8000080808000203FC5
:103D200024022D302000000808F8000000000020C8
:103D3000203F202000008080808080808000203F05
:103D400020003F20003F8080008080800000203FD6
:103D5000210000203F200000808080800000001FA4
:103D6000202020201F00808000808000000080FF35
:103D7000A12020110E000000008080808000000E35
:103D8000112020A0FF808080800080808000202083
:103D90003F212000010000008080808080000033EF
:103DA000242424241900008080E08080000000008A
:103DB000001F202000008080000000808000001F85
:103DC000202020103F208080800000808080000123
:103DD0000E300806010080800080008080800F3057
:103DE0000C030C300F0000808000808080000020D9
:103DF000312E0E3120008080800000808080808104
:103E00008E70180601000080808080808000002174
:103E1000302C2221300000000000807C02020000D3
:103E20000000003F404000000000FF0000000000D4
:103E30000000FF0000000002027C80000000004043
:103E4000403F0000000000060101020204040000DF
:103E50000000000000000000783E00080000002084
:103E6000800500006C0100087042000880050020F9
:103E700038070000C8010008012184A24A04000993
:103E80002C0102030406070809100BF0781C060633
:103E90000202928A841008C0F0381807FFE7501316
:103EA0000203C3A32101C1848A92820202060C7814
:103EB000F0C0100821C10143E303021EEEFF0E18FB
:103EC000381416071F7080E01009010F1F70E0C33F
:103ED00004034203180D030D317060C0C0E1674652
:103EE000183C14100884C7E4781F0F013811E080D3
:103EF000701F073C184667E1C0C06060310D2C158B
:103F00000C12120C700AF0180C0404040C18304047
:103F10000A0F183020202030180C280D80C0E0F047
:103F2000F8FCFCF8F0E0C080DF29011A7F013909B4
:103F3000191F29011AFC0139092921180B03070F40
:103F40001F3F3F1F0F07031F1119592BFF54011A61
:103F5000FF0A21101011118985939191FD91919380
:103F600085891111170484E45C44C420087C404016
:103F7000FF40407C1702017F10103F20087E404028
:103F80007F4040FE17101010FF10901009F808082D
:103F9000090E080808A0090444827F0180601F3FC1
:103FA000FE129292F292041A1E8F100F601F0404E8
:103FB000FC47240C1427344C44441934193C2A0877
:103FC000461C1010F050200E30101F088848300E8C
:103FD000014080403F100908CC4A49484ACC182784
:103FE0007F88888482E027FF121252927F5A7E10C7
:103FF0003983B410F0F81E2020203F3F05611C607B
:1040000070506119012BF0F012400E20303028283A
:1040100024242221212030183C3030301F5490F0CD
:10402000602E18382020210174121E0C7C80402044
:1040300062400F04060505040424243F3F242404A1
:10404000043BE0E08791A43838381A80011EFF80D5
:1040500080A090AE190B51300CFF402112040810C3
:10406000202040402809FC242424FC252624081272
:1040700004380D40308F80844C55252525554C3013
:10408000180C0202F2121212F2020202FE0441168F
:104090000F0404040F4440807F15404042CC48097F
:1040A00040A09E8282829EA0F3380B3F90884043BE
:1040B0002C1028464170480880C0E0F0F8FCC00190
:1040C0002148090103070F1F3F7F070111280D2019
:1040D00010E824272424E424342C20C71D80601FEA
:1040E00009013E7F0909498961091EA011051B0CC0
:1040F00012120C1BF808012C887F88072AF8FD1182
:104100001D08040201882B024CC2280E4454547F1F
:10411000545444202827E4342C8116FF1555957FEC
:10412000297E1C09091F28212AF0162A400139F08E
:104130005B407F043912195C2808C8380C0B08084A
:10414000E8611208195B1CFF4041012A7F051240FB
:104150001010424A52FE514982864A52A2524A8661
:1041600080180C100C03FF020410121212FF041A24
:104170001040180EF94A48C84820D8171010F010FF
:1041800010E0180D0F20403F8040211608162140F6
:10419000E012E02808FF10200888780F62128819C2
:1041A000921AFF45100983442318071862814E2094
:1041B0001008F7540124F40404180F809090494D1E
:1041C00057252525554D458080701C1014D41C2F73
:1041D000FC525252D3126018084050575555557F23
:1041E000043B5750D21E4244584040E034504846A9
:1041F0004A04015AFF0821180D1088C433808242F6
:1042000022121A26229029E0111E404242427E04C8
:104210002A4240114BFE220142FE2D4040407F1AAF
:1042200019011A7F0C19102342CC2809FC24A4245C
:104230002222A36221280D201F20584750484542C2
:1042400045485040380BFE0202F2121212F20202EE
:104250004111000C177F2020272424242720207FB1
:104260002D010203040420090607080902040608B8
:0400000508000131BD
:00000001FF
