:020000040800F2
:10000000D80A0020D5010008A50F0008F50900084E
:10001000A10F0008C50600085914000800000000E0
:100020000000000000000000000000003512000881
:10003000D908000800000000DD110008B113000815
:10004000EF010008EF010008EF010008EF010008D0
:10005000EF010008EF010008EF010008EF010008C0
:10006000EF010008EF010008EF010008EF010008B0
:10007000EF010008EF010008EF010008EF010008A0
:10008000EF010008EF010008EF010008EF01000890
:10009000EF010008EF010008EF010008EF01000880
:1000A000EF010008EF010008EF010008EF01000870
:1000B000EF010008EF01000815140008EF01000827
:1000C000EF010008EF010008EF010008EF01000850
:1000D000EF010008EF010008EF010008EF01000840
:1000E000EF010008EF010008EF010008EF01000830
:1000F000EF010008EF010008EF010008EF01000820
:10010000EF010008EF010008EF010008EF0100080F
:10011000EF010008EF010008EF010008EF010008FF
:10012000EF010008EF010008EF010008EF010008EF
:1001300000F002F800F03FF80AA090E8000C8244BA
:100140008344AAF10107DA4501D100F034F8AFF297
:10015000090EBAE80F0013F0010F18BFFB1A43F0A5
:10016000010318478C4A0000AC4A0000103A24BF33
:1001700078C878C1FAD8520724BF30C830C144BF0C
:1001800004680C607047000000230024002500264E
:10019000103A28BF78C1FBD8520728BF30C148BFEA
:1001A0000B607047642900F09B80002070471FB5EA
:1001B0001FBD10B510BD00F053FA1146FFF7F7FF51
:1001C00002F0C2FA00F071FA03B4FFF7F2FF03BCC9
:1001D00001F044F90948804709480047FEE7FEE777
:1001E000FEE7FEE7FEE7FEE7FEE7FEE7FEE7FEE7E7
:1001F00004480549054A064B70470000B51300083E
:1002000031010008D8040020D80A0020D8060020B8
:10021000D8060020704710B54C1084EA530404D56A
:100220004042C1F1000138BF491E1B4204D5524271
:10023000C3F1000338BF5B1E00F0C6F814F0804F16
:1002400004D04042C1F1000138BF491E14F0004FF4
:1002500004D05242C3F1000338BF5B1E10BD000042
:100260000FB4044910B503AA029800F07DF910BC40
:100270005DF814FB040000202DE9F0410E46044611
:10028000002020622046E168884730B3252805D049
:10029000D4E901219047206A401CF2E7E16820463A
:1002A00000278847050018D0A5F14100192802D879
:1002B00020354FF400673246294620462760FFF775
:1002C00071FF40B1012804D0F61D26F0070608365C
:1002D000D8E7361DD6E72846DAE7206ABDE8F08180
:1002E0002DE9F0410646002410687529314616A50F
:1002F00010D0AFF30080002802DA404213A507E0D7
:1003000031688A0701D512A502E0490704D511A575
:10031000012401E0AFF3008000210A2206F1240746
:1003200009E0B0FBF2FCB0FBF2F302FB1C00303042
:1003300078541846491C0028F3D123462A463046F3
:10034000BDE8F04100F0B7B8000000002D0000004B
:100350002B0000002000000040EA010310B59B07BD
:100360000FD1042A0DD310C808C9121F9C42F8D01F
:1003700020BA19BA884201D9012010BD4FF0FF30D0
:1003800010BD1AB1D30703D0521C07E0002010BDE6
:1003900010F8013B11F8014B1B1B07D110F8013B72
:1003A00011F8014B1B1B01D1921EF1D1184610BD53
:1003B00002F0FF0343EA032242EA024200F0E8B8F7
:1003C000704770477047704753EA020C00F069802D
:1003D0002DE9F04B4FF00006002B1FBFB3FA83F559
:1003E00003FA05F424FA05F65E4012BF1643B2FA8A
:1003F00082F502FA05F4C5F120051EBF22FA05FCBC
:1004000044EA0C04203556EA044C4FEA144418BF61
:10041000641C4FF000084FF00009904271EB030C90
:1004200039D3002919BFB1FA81F701FA07F6B0FAFA
:1004300080F700FA07F6C7F120071EBF20FA07FC75
:1004400046EA0C062037B6FBF4FCA7EB0507103F85
:1004500007F01F0BCBF120060CFA0BFB2CFA06F66B
:1004600044BFB3460026202FA4BF5E464FF0000BCA
:100470005BEA060C08BF4FF0010B19EB0B09ABFB55
:10048000027C48EB0608C01B06FB02CC0BFB03CC2E
:1004900071EB0C01C1E70B46024641464846BDE8F8
:1004A000F08B13B54FF000004FF00001AFF3008068
:1004B000BDE81C4070472DE9F0470D46994692462D
:1004C000044600F124080168880604D5E06921F09B
:1004D0001001216000E00120A84201DD471B00E07F
:1004E0000027A1697A1902EB0900081AA061207897
:1004F000C00602D42046AFF30080002608E0D4E90D
:1005000001211AF806009047206A401C761C2062E0
:100510004E45F4DB2078C0060AD52046AFF30080B4
:1005200006E0D4E9012130209047206A401C206277
:10053000381EA7F10107F4DC07E0D4E9012118F81F
:1005400005009047206A401C2062281EA5F1010585
:10055000F3DC2046AFF300802078000602D50220AD
:10056000BDE8F0870120FBE7074B70B50D467B44E3
:1005700000F033F80446284600F042F810B14FF07E
:10058000FF3070BD204670BD3B1A00004FF00002E6
:100590000429C0F0128010F0030C00F03780CCF179
:1005A000040CBCF1020F18BF00F8012BA8BF20F803
:1005B000022BA1EB0C0100F029B85FEAC17C24BF3B
:1005C00000F8012B00F8012B48BF00F8012B704701
:1005D00001694A1C02610878704700B58FB0CDE907
:1005E00001310021059105497944CDE903101146F7
:1005F0006846FFF741FE0FB000BD0000E5FFFFFFBA
:10060000007B00F0800070474FF0000200B51346F9
:1006100094469646203922BFA0E80C50A0E80C5022
:10062000B1F12001BFF4F7AF090728BFA0E80C50D3
:1006300048BF0CC05DF804EB890028BF40F8042BCC
:1006400008BF704748BF20F8022B11F0804F18BF39
:1006500000F8012B70470000004870477804002024
:100660007546FFF7F9FFAE4605006946534620F090
:100670000700854618B020B5FFF7BAFDBDE8204059
:100680004FF000064FF000074FF000084FF0000B4E
:1006900021F00701AC46ACE8C009ACE8C009ACE801
:1006A000C009ACE8C0098D4670470446AFF300802E
:1006B0002046FFF789FD00000149086070470000EF
:1006C00000860D4200BFFEE738B5002000906B4663
:1006D00001227521682001F091FF2CA0FFF7C0FDD9
:1006E0009DF8000068280ED000BF3148006800F473
:1006F000E06030490843001D2D490860BFF3408F7A
:1007000000BF00BFFEE702F04FF900283CD178207F
:1007100002F0F4FE10B91DA0FFF7A2FD782002F050
:1007200031F810B924A0FFF79BFDC82002F098FE15
:1007300010B92BA0FFF794FD01F0BAF810B932A060
:10074000FFF78EFD3D4801F0C4FF044601F024FA96
:1007500010B93BA0FFF784FD40F2731000F050FF8A
:1007600010B941A0FFF77CFDC82001F045F910B990
:1007700047A0FFF775FD02F069FF012002F06CFD54
:1007800010B94CA0FFF76CFD38BD00006D70755FAF
:100790007365745F73656E736F7220636F6D706CD9
:1007A000657465202E2E2E2E2E2E0D0A00000000C0
:1007B0000CED00E00000FA056D70755F636F6E660A
:1007C00069677572655F6669666F20636F6D706CCF
:1007D000657465202E2E2E2E2E2E0D0A0000000090
:1007E0006D70755F7365745F73616D706C655F725A
:1007F00061746520636F6D706C657465202E2E2E9C
:100800002E2E2E0D0A000000646D705F6C6F616407
:100810005F6D6F74696F6E5F6472697665725F6633
:1008200069726D7761726520636F6D706C65746558
:10083000202E2E2E2E2E2E0D0A00000058000020F5
:10084000646D705F7365745F6F7269656E746174F7
:10085000696F6E20636F6D706C657465202E2E2E2F
:100860002E2E2E0D0A000000646D705F656E6162B1
:100870006C655F6665617475726520636F6D706C21
:10088000657465202E2E2E2E2E2E0D0A00000000DF
:10089000646D705F7365745F6669666F5F726174C3
:1008A0006520636F6D706C657465202E2E2E2E2E64
:1008B0002E0D0A006D70755F7365745F646D705FF7
:1008C000737461746520636F6D706C657465202E40
:1008D0002E2E2E2E2E0D0A0070472DE9F0410246D5
:1008E00000250026002000230024002791F803C0E3
:1008F0000CF00F0591F803C00CF0100CBCF1000FC8
:1009000003D091F802C04CEA050591F800C0BCF193
:10091000000F31D0146800202BE04FF0010C0CFACE
:1009200000F3B1F800C00CEA03069E4220D1830018
:100930004FF00F0C0CFA03F7BC4305FA03FC4CEA2A
:10094000040491F803C0BCF1280F06D14FF0010C4C
:100950000CFA00FCC2F814C00AE091F803C0BCF124
:10096000480F05D14FF0010C0CFA00FCC2F810C082
:10097000401C0828D1D31460B1F800C0BCF1FF0FAF
:1009800034DD546800202EE000F1080C4FF001081F
:1009900008FA0CF3B1F800C00CEA03069E4221D11C
:1009A00083004FF00F0C0CFA03F7BC4305FA03FC6D
:1009B0004CEA040491F803C0BCF1280F05D100F102
:1009C000080C08FA0CF8C2F8148091F803C0BCF1C6
:1009D000480F07D100F1080C4FF0010808FA0CF895
:1009E000C2F81080401C0828CED35460BDE8F081C6
:1009F0000161704700BFFEE770B505460E46002452
:100A000000F0EAF8284600F0B5F8641C00F03CF964
:100A1000304600F0AFF8641C00F036F900F0DCF866
:100A2000691CC8B200F0A6F8641C00F02DF9002083
:100A300000F068F8044600F003F9204670BD00009D
:100A400010B500200E4908600E48006820F0F00044
:100A50000C4908600846006840F03000086000203B
:100A60000949C1F8A401012000F08EFD01200449CC
:100A7000086000F089FD00200349C1F8A00110BD05
:100A8000A0812142040C01400080214208B50121CF
:100A9000082000F0A5FB4FF44070ADF800001020D6
:100AA0008DF8030003208DF8020069460148FFF726
:100AB00014FF08BD000C014010B500200E4908606D
:100AC0000E48006820F0F0000C49086008460068F5
:100AD00040F03000086001200949C1F8A40100F08D
:100AE00053FD01200449086000F04EFD0020044938
:100AF000C1F8A00110BD0000A0812142040C0140FA
:100B00000080214270B5054600241748006820F097
:100B1000F000154908600846006840F08000086051
:100B2000002616E0002011490860022000F02CFD8C
:100B300001200F49C1F8A0016006040E0B487C3863
:100B4000006808B1601CC4B2022000F01DFD701CDA
:100B5000C6B2082EE6DB15B1FFF772FF01E0FFF722
:100B6000ABFF204670BD0000040C0140A081214273
:100B70000080214270B504461448006820F0F0005F
:100B8000124908600846006840F030000860002004
:100B90000F490860002516E0E0090D49091D0860AD
:100BA0006006040E012000F0EFFC01200949C1F8A5
:100BB000A00100F0E9FC002005490860012000F0D8
:100BC000E3FC681CC5B2082DE6DB70BD040C0140D7
:100BD000A08121420080214210B51648006820F013
:100BE000F000144908600846006840F030000860D2
:100BF0000120114908601148D0F8240108B90020EB
:100C000010BD01200C49091F086000F0BDFC002048
:100C10000A49C1F8A40108488038006808B10020DA
:100C2000EEE7012000F0B0FC00200349091F086036
:100C30000120E5E7040C0140A4812142008021420B
:100C400010B50E48006820F0F0000C490860084616
:100C5000006840F030000860002009490860094938
:100C6000C1F8A401012000F08FFC012004490860B4
:100C70000449C1F8A40100F087FC10BD040C014038
:100C8000A08121420080214210B50024154800684F
:100C900020F0F000134908600846006840F080002A
:100CA000086001201049086000F06EFC01200F4927
:100CB000C1F8A00100F068FC0AE0601CC4B2322C4C
:100CC00003DDFFF7BDFF002010BD012000F05CFC3C
:100CD0000548803800680028EFD10349091F0860E3
:100CE0000120F1E7040C0140A4812142008021424F
:100CF00070B505460E46144631462846FFF77CFE81
:100D00002070012070BDF8B506460F4614461D46FA
:100D10006A4639463046FFF7EBFF2DB10120A0406F
:100D20009DF80010084305E00120A0409DF8001048
:100D300021EA0000C0B200909DF8002039463046FC
:100D400000F036F8F8BD2DE9F8430746884614460A
:100D50001D46089E6A4641463846FFF7C9FF28B33C
:100D6000601CFF2101FA00F0C4F108012944491E6A
:100D7000FF220A41104300F0FF09C5F1080006FAFE
:100D800000F0C6B2C4F1070006419DF8000000EA79
:100D9000090000909DF80000304300909DF800206D
:100DA0004146384600F004F8BDE8F8830020FBE730
:100DB00037B504460D4602AB01222946204600F015
:100DC00001F83EBD2DE9F04180460D4616461F460E
:100DD0000024FFF701FF4046FFF7CCFEFFF754FF6A
:100DE0002846FFF7C7FEFFF74FFF00BF06E0385D5C
:100DF000FFF7C0FEFFF748FF601CC4B2B442F6DB49
:100E0000FFF71EFF0120BDE8F08100000146490602
:100E1000084A926942F00102064B9A61064A5268FA
:100E200022F0E062044B5A601A4652680A435A6044
:100E300070470000001002400000014008B5012189
:100E4000482000F0CDF92020ADF8000010208DF8EA
:100E5000030003208DF8020069460948FFF73DFDB5
:100E600020210748FFF7C4FD2020ADF800006946A7
:100E70000448FFF732FD20210248FFF7B9FD08BD05
:100E8000000C01400018014010B5022000F010F8DD
:100E9000032000F021F8002000F014F8002000F0FA
:100EA00037F8002000F02BF8002000F01FF810BDEC
:100EB00038B50446032302226B21D0200094FFF7AB
:100EC00042FF38BD38B50446022304221C21D0203D
:100ED0000094FFF738FF38BD38B5044602230422DA
:100EE0001B21D0200094FFF72EFF38BD10B504461B
:100EF000234601223721D020FFF705FF10BD10B592
:100F00000446234605226A21D020FFF7FCFE10BDCF
:100F100010B50446234606226B21D020FFF7F3FECE
:100F200010BD000000B5002015490861C8601420FC
:100F3000486100208861C8610846006840F00100EF
:100F40000860084640680F4908400D494860084657
:100F500000680D4908400A4908600846006820F406
:100F6000802008600846406820F4FE0048600020A9
:100F7000886000214FF0006000F008F800BD00001C
:100F8000001002400000FFF8FFFFF6FE024A0A4090
:100F90000243024B1A60704780FFFF1F08ED00E01C
:100FA00000BFFEE77047000030B500240CE00025CC
:100FB00006E00020074901EBC5010855681CC5B2D1
:100FC000802DF6DB601CC4B2082CF0DB00F0AEF81C
:100FD00030BD00006800002008B50121082000F0A5
:100FE000FFF83820ADF8000010208DF80300022033
:100FF0008DF8020069464948FFF76FFC0121042083
:1010000000F0EEF84FF40040ADF8000002208DF83B
:10101000020010208DF8030069464148FFF75DFC8F
:10102000012000F0D5F8002000F0EAF80020FFF7DA
:1010300043FB002000F0CCF800203A49086064200F
:1010400000F084FA01203849C1F88C010021AE205B
:1010500000F092F80021D52000F08EF800215020F9
:1010600000F08AF80021A82000F086F800213F2037
:1010700000F082F80021D32000F07EF8002108461D
:1010800000F07AF80021402000F076F800218D2051
:1010900000F072F80021142000F06EF800212020EA
:1010A00000F06AF80021022000F066F80021A1207B
:1010B00000F062F80021C02000F05EF80021DA2084
:1010C00000F05AF80021122000F056F8002181208B
:1010D00000F052F80021EF2000F04EF80021D92056
:1010E00000F04AF80021F12000F046F80021DB2052
:1010F00000F042F80021302000F03EF80021A4204A
:1011000000F03AF80021A62000F036F80021AF20C8
:1011100000F032F8FFF748FF08BD0000000C014066
:10112000000801408C8121420080214230B500241A
:101130001CE004F1B001C8B2002100F01DF800214C
:10114000084600F019F80021102000F015F80025DD
:1011500008E0084901EBC501085D012100F00CF829
:10116000681CC5B2802DF4DB601CC4B2082CE0DB27
:1011700030BD00006800002010B50A461AB10123F6
:10118000114C236002E000230F4C2360002114E087
:1011900000230E4C236000F080031BB10123241FA9
:1011A000236003E00023094C241F23600123074C24
:1011B00023604306180E4B1CD9B20829E8DB012333
:1011C000014C236010BD0000BC01214294812142EA
:1011D000014908627047000000000E42704700009D
:1011E00029B1064A92690243044B9A6104E0034A1A
:1011F00092698243014B9A617047000000100240DF
:1012000000210B4A11700A4A203A82F82010012866
:1012100002D0042808D103E00121054A117004E03E
:101220000521034A117000E000BF00BF70470000B5
:1012300020100240704710B500F002F810BD000009
:101240000CB50020019000903348006840F48030D5
:101250003149086000BF3048006800F40030009059
:101260000198401C0190009818B90198B0F5A06F42
:10127000F1D12948006800F4003010B1012000903D
:1012800001E0002000900098012843D12348006825
:1012900040F01000214908600846006820F0030073
:1012A00008600846006840F0020008601A4840687C
:1012B000194948600846406848600846406840F45C
:1012C000806048600846406820F47C10486008460A
:1012D000406840F4E81048600846006840F08070BC
:1012E000086000BF0C48006800F000700028F9D0CA
:1012F0000948406820F003000749486008464068F4
:1013000040F00200486000BF0348406800F00C0055
:101310000828F9D10CBD0000001002400020024056
:1013200030B504460025FFF7FDFD1F48006840F476
:1013300080301D49086000BF1B480068400C002831
:10134000FAD04FF4806018494860A01EC4B2084625
:10135000406840EA844048600846406840F4803075
:1013600048601248006840F03200104908600E489A
:10137000006840F080700C49086000BF0A480068AF
:10138000400E0028FAD00848406840F002000649A4
:10139000486005E004484068C0F3870505F0030590
:1013A000022DF7D130BD00000010024000200240A5
:1013B0007047000010B51348006840F00100114963
:1013C000086008464068104908400E4948600846D1
:1013D00000680E4908400B4908600846006820F480
:1013E000802008600846406820F4FE0048604FF402
:1013F0001F008860FFF71FFF4FF00060044908607E
:1014000010BD0000001002400000FFF8FFFFF6FED4
:1014100008ED00E010B50121044800F00CF818B107
:101420000121024800F004F810BD0000000800404F
:10143000CA430282704730B50246002000230024D0
:10144000158A05EA0103958905EA010413B10CB177
:10145000012000E0002030BD00BFFEE7014600BFD4
:10146000704700002DE9FE4F06460F4600256846EE
:1014700000F0AAFD002442E056F8240057F824109A
:10148000A0EB010ABAF1000F01DB514601E0CAF1FD
:101490000001084602F082FB83464FF08F4102F0C4
:1014A0004BFA80465DF82400002102F007FB16D0BD
:1014B0005DF82410404602F03FFA82464FF07E511C
:1014C00002F0D4FC814629F0004A0F48416A504698
:1014D00002F090FC12D20120A04005430EE00A4821
:1014E000C169404602F086FB05D30748016A4046C1
:1014F00002F080FC02D20120A0400543641C032CB2
:10150000BADB2846BDE8FE8F803F00084FF0E0219F
:10151000096921F004014FF0E0221161C21700EBCC
:101520005272C2F3C702074B1A701946097801EBD1
:101530004102C2EBC1114FF6FF7202EAC101024A39
:1015400011807047000000200200002001460D4A73
:1015500012884A434FF0E0235A6100229A61012227
:101560001A6100BF4FF0E022106900F001021AB1C9
:1015700000F48032002AF5D000224FF0E0231A61F7
:101580009A6170470200002001460D4A12784A43D2
:101590004FF0E0235A6100229A6101221A6100BFD4
:1015A0004FF0E022106900F001021AB100F480321D
:1015B000002AF5D000224FF0E0231A619A617047AB
:1015C0000000002038B5044664B120208DF80000EA
:1015D00028208DF8010030208DF8020038208DF889
:1015E000030004E0A32204216846FEF7E1FE6A46F8
:1015F000042140F69E2001F0E9FF01F0D9FB38BD3F
:101600003EB5044602208DF80000CA208DF8010086
:10161000E3208DF8020009208DF803006A460421BA
:10162000682001F0D3FFA3208DF8000004F04000F3
:1016300048B1C0208DF80100C8208DF80200C220FA
:101640008DF8030006E0A3208DF801008DF802005C
:101650008DF8030004F4C07048B1C4208DF8040074
:10166000CC208DF80500C6208DF8060006E0A320EA
:101670008DF804008DF805008DF80600A3208DF884
:1016800007008DF808008DF809006A460A2140F627
:10169000A72001F09BFF04F0030018B120208DF873
:1016A000000002E0D8208DF800006A46012140F6D3
:1016B000B62001F08BFF04F0200018B1012000F0EB
:1016C000ADF802E0002000F0A9F804F4C07008B3FF
:1016D00004F4807060B1B2208DF800008B208DF88A
:1016E0000100B6208DF802009B208DF803000BE06E
:1016F000B0208DF8000080208DF80100B4208DF816
:10170000020090208DF803006A46042140F6A220D2
:1017100001F05CFF04F0010020B3F8208DF8000018
:101720006A4601214FF40B6001F050FFFA210720B7
:1017300000F046FB072000F00DFB012000F02DFB20
:10174000642000F00DFC4FF4FA7000F01CFCC8217E
:10175000304800F0BDFA282000F0D6FA0A2000F048
:10176000E6FA08E0D8208DF800006A4601214FF41F
:101770000B6001F02BFF04F0020018B1D9208DF8A6
:10178000000002E0D8208DF800006A46012140F2F6
:101790003D7001F01BFF04F0040018B1012000F0BF
:1017A00069F802E0002000F065F804F0100018B1BC
:1017B0000120FFF707FF02E00020FFF703FF44F0DE
:1017C00008001549488101F0F3FA00201249887396
:1017D00004F0400018B10846807B801D887304F433
:1017E000C07020B10C48807B801D0B49887304F0C9
:1017F000140020B10848807B10300749887304F03A
:10180000030020B10448807B001D03498873002039
:101810003EBD000009E3CA02680400203EB504464C
:101820006CB10EA1D1E900208968CDE900200291B8
:101830006A4609214FF4976001F0C8FE3EBD0AA236
:10184000D2E900109268CDE9010200916A460921AF
:101850004FF4976001F0BAFEF0E70000B8AAB38D2C
:10186000B4980D355D000000B8AAAAAAB088C3C517
:10187000C700000038B5044664B1C0208DF80000F0
:10188000C2208DF80100C4208DF80200C6208DF81A
:10189000030004E08B2204216846FEF789FD6A46B6
:1018A000042140F6982001F091FE01F081FA38BD44
:1018B00010B5C8234FF48062024940F6F63001F0BB
:1018C0006BF910BDA83F000870B588B0064601A8A6
:1018D00000F0B6FFBDF804000021C90341EA5045FD
:1018E000C4034448007A00F0030056F82000059035
:1018F0004048007A00F0040010B10598404205907D
:101900003C48007AC0F3C10056F8200006903948E0
:10191000007A00F0200010B1069840420690354849
:10192000007AC0F3811056F82000079031480089F2
:1019300000F4807010B10798404207900598C117D5
:10194000A0FB042301FB043100FB0510810041EAE8
:10195000927005900698C117A0FB042301FB043187
:1019600000FB0510810041EA927006900798C117AC
:10197000A0FB042301FB043100FB0510810041EAB8
:10198000927007900598000E8DF808000598000CDD
:101990008DF809000598000A8DF80A000598C0B274
:1019A0008DF80B000698000E8DF80C000698000CC0
:1019B0008DF80D000698000A8DF80E000698C0B24A
:1019C0008DF80F000798000E8DF810000798000C96
:1019D0008DF811000798000A8DF812000798C0B220
:1019E0008DF8130002AA0C214FF4257001F0EEFDD2
:1019F00008B070BD6804002030B585B0044616A25A
:101A000007CA02AB07C3C82C03DD4FF0FF3005B097
:101A100030BDC82090FBF4F0401E85B2280A8DF836
:101A20000000E8B28DF801006A46022140F216205B
:101A300001F0CCFD10B14FF0FF30E8E702AA0C2115
:101A400040F6C12001F0C2FD10B14FF0FF30DEE7DB
:101A5000044884810020DAE7FEF2ABC4AAF1DFDF9C
:101A6000BBAFDFDF680400201FB504464848007A9A
:101A700000F0030054F8200001904548007A00F07F
:101A8000040010B10198404201904148007AC0F32F
:101A9000C10054F8200002903D48007A00F0200078
:101AA00010B10298404202903948007AC0F3811088
:101AB00054F8200003903648008900F4807010B17B
:101AC0000398404203903349019880FB0101800F45
:101AD00040EA810001902F49029880FB01108200AA
:101AE00042EA917002902B49039880FB011082001A
:101AF00042EA917003900198000E8DF80000019861
:101B0000000C8DF801000198000A8DF80200019880
:101B1000C0B28DF803006A4604214FF4747001F0DE
:101B200055FD18B14FF0FF3004B010BD0298000E03
:101B30008DF800000298000C8DF801000298000A50
:101B40008DF802000298C0B28DF803006A460421A5
:101B50004FF4757001F03AFD10B14FF0FF30E3E73C
:101B60000398000E8DF800000398000C8DF801001A
:101B70000398000A8DF802000398C0B28DF80300A4
:101B80006A4604214FF4767001F020FDCCE7000096
:101B90006804002009E3CA0210B586B0044647A0D5
:101BA0000068039046A00068029046A0006801907B
:101BB00045A00068009004F0030003A9085C8DF8BC
:101BC000140003A8C4F3C101405C8DF8150003A8FC
:101BD000C4F38111405C8DF8160004F0030002A9E3
:101BE000085C8DF8100002A8C4F3C101405C8DF8B8
:101BF000110002A8C4F38111405C8DF8120005AAFF
:101C0000032140F2264001F0E1FC18B14FF0FF3013
:101C100006B010BD04AA032140F22A4001F0D6FC10
:101C200010B14FF0FF30F3E7019805900098049051
:101C300004F0040058B19DF8140040F001008DF844
:101C400014009DF8100040F001008DF8100004F021
:101C5000200058B19DF8150040F001008DF81500E6
:101C60009DF8110040F001008DF8110004F480701F
:101C700058B19DF8160040F001008DF816009DF84F
:101C8000120040F001008DF8120005AA03214FF464
:101C9000886001F09BFC10B14FF0FF30B8E704AA58
:101CA000032140F2314001F091FC10B14FF0FF30C0
:101CB000AEE7064804810020AAE700004CCD6C0086
:101CC0000CC92C00365676002646660068040020B3
:101CD000F8B505460E464FF47A7095FBF0F000FB20
:101CE00006F4200E8DF80000200C8DF80100200A6B
:101CF0008DF80200E0B28DF803006A4604214FF42B
:101D0000AE7001F063FCF8BD38B50446052094FBC5
:101D1000F0F084B220128DF80000E0B28DF80100DE
:101D20006A4602214FF4AD7001F050FC38BD38B561
:101D30000446052094FBF0F084B220128DF80000D8
:101D4000E0B28DF801006A4602214FF4AC7001F058
:101D50003DFC38BD38B504460020009004F0010079
:101D600020B19DF8000040F03000009004F0020027
:101D700020B19DF8000040F00C00009004F0040039
:101D800020B19DF8000040F0030000906A46012158
:101D90004FF4A47001F01AFC38BD38B50446012C8C
:101DA00001DA012402E0042C00DD0424601EC0B22C
:101DB00000906A46012140F24F1001F007FC38BD47
:101DC0002DE9FC4706460F4606F0070010B1B7F5AF
:101DD000C86F03DD4FF0FF30BDE8FC87384601F0E7
:101DE000F5FE8146594901F0A7FD8046684600F09E
:101DF00001FD9DF80000022806D0042816D008280E
:101E000026D0102848D135E04FF08D41404601F0F2
:101E100025FF814601F0A2FE84B24D49404601F003
:101E20001DFF814601F09AFE85B238E04FF08C41EB
:101E3000404601F013FF814601F090FE84B245490F
:101E4000404601F00BFF814601F088FE85B226E096
:101E50004FF08B41404601F001FF814601F07EFECC
:101E600084B23D49404601F0F9FE814601F076FE1C
:101E700085B214E04FF08A41404601F0EFFE814602
:101E800001F06CFE84B23549404601F0E7FE814620
:101E900001F064FE85B202E04FF0FF309CE700BF26
:101EA00020128DF80400E0B28DF8050028128DF89C
:101EB0000600E8B28DF8070006F00100A0B101AA03
:101EC00002214FF4EA7001F081FB10B14FF0FF30B6
:101ED00082E70DF1060202214FF4927001F076FBC9
:101EE00010B14FF0FF3077E706F00200A0B101AA71
:101EF00002214FF4EC7001F069FB10B14FF0FF309C
:101F00006AE70DF1060202214FF4947001F05EFBC6
:101F100010B14FF0FF305FE706F00400A0B101AA56
:101F200002214FF4EE7001F051FB10B14FF0FF3081
:101F300052E70DF1060202214FF4967001F046FBC4
:101F400010B14FF0FF3047E7002045E7000048435D
:101F5000000040460000C045000040450000C0446D
:101F600038B50446052094FBF0F085B228128DF8B0
:101F70000000E8B28DF801006A4602214FF4EF70CC
:101F800001F024FB38BD38B50446052094FBF0F081
:101F900085B228128DF80000E8B28DF801006A467B
:101FA00002214FF4ED7001F011FB38BD00BF054A6E
:101FB000128802F04002002AF9D0C2B2014B1B1D68
:101FC0001A807047003801407CB5054628494968A9
:101FD000087801AB04220D2100F010FB08B10720A6
:101FE0007CBD9DF80700C0F301109DF8041001F0BE
:101FF000E00140EAE1008DF800009DF80700C0F321
:1020000081009DF8051001F0E00140EAE1008DF843
:1020100001009DF8070000F003009DF8061001F094
:10202000E00140EAE1008DF8020000241CE01DF808
:10203000040018B9002045F8240013E00D4845F8C5
:10204000240006E055F824000B4901F007FE45F88E
:1020500024001DF80400401EC0B20DF80400002842
:10206000F0D100BF601CC4B2032CE0DB0020B7E756
:102070000C0000207B14AE3E1D5A843F2DE9F04F2A
:1020800087B005460C46914601208DF810000020CF
:102090008DF81100FE4A1268917CFD4A5268107852
:1020A00004AB022200F0E5FA20B14FF0FF3007B098
:1020B000BDE8F08FC820FFF749FA00208DF8100026
:1020C000F34A1268D17BF24A5268107804AB0122BD
:1020D00000F0CFFA10B14FF0FF30E8E7EC4A126899
:1020E0005179EB4A5268107804AB012200F0C1FA32
:1020F00010B14FF0FF30DAE7E54A1268917CE44A0C
:102100005268107804AB012200F0B3FA10B14FF01E
:10211000FF30CCE7DE4A1268D17DDD4A5268107884
:1021200004AB012200F0A5FA10B14FF0FF30BEE77A
:10213000D74A12681179D64A5268107804AB012246
:1021400000F097FA10B14FF0FF30B0E70C208DF897
:102150001000CF4A12681179CD4A5268107804AB4A
:10216000012200F086FA10B14FF0FF309FE70F20F8
:10217000FFF7ECF9C648806A407A8DF81000C44A2F
:1021800012689178C24A5268107804AB012200F0BC
:1021900070FA10B14FF0FF3089E7BD48806A007ACD
:1021A0008DF81000BA4A12685178B94A526810780E
:1021B00004AB012200F05DFA10B14FF0FF3076E77A
:1021C000B9F1000F07D0B248806A807A40F0E00091
:1021D0008DF8100004E0AE48806A807A8DF8100017
:1021E000AB4A12689179AA4A5268107804AB01226E
:1021F00000F03FFA10B14FF0FF3058E7B9F1000F8F
:1022000007D0A348806AC07A40F0E0008DF8100043
:1022100003E0A048C07A8DF810009D4A1268D17979
:102220009B4A5268107804AB012200F022FA10B1E8
:102230004FF0FF303BE7B9F1000F02D0C820FFF7A5
:1022400085F940208DF81000914A12681179904A62
:102250005268107804AB012200F00BFA10B14FF075
:10226000FF3024E778208DF81000894A12685179F0
:10227000874A5268107804AB012200F0FAF910B1D5
:102280004FF0FF3013E783498889FFF75FF900209B
:102290008DF810007E4A126851797D4A5268107894
:1022A00004AB012200F0E5F910B14FF0FF30FEE67B
:1022B000774A1268917A764A5268107804AB022203
:1022C00000F09CF910B14FF0FF30F0E69DF81100DE
:1022D0009DF8101040EA012B0C209BFBF0F0C6B2D9
:1022E0000020A86068602860A0606060206082466E
:1022F00065E0674A1268D17A654A5268107804AB83
:102300000C2200F07BF910B14FF0FF30CFE69DF8C2
:1023100011009DF8101040EA012000B2ADF808004D
:102320009DF813009DF8121040EA012000B2ADF8AC
:102330000A009DF815009DF8141040EA012000B233
:10234000ADF80C00BDF90810206808442060BDF904
:102350000A10606808446060BDF90C10A068084469
:10236000A0609DF817009DF8161040EA012000B209
:10237000ADF800009DF819009DF8181040EA012002
:1023800000B2ADF802009DF81B009DF81A1040EA5B
:10239000012000B2ADF80400BDF90010286808441F
:1023A0002860BDF90210686808446860BDF904102F
:1023B000A8680844A8600AF1010000F0FF0AB245CD
:1023C00097DB3448D0F800C02868C117090441EAF7
:1023D00010410704624600233846FDF71CFF3246D1
:1023E0000023CDE90201FDF716FF28602948D0F847
:1023F00000C06868C117090441EA10410704624639
:1024000000233846FDF707FF32460023CDE90201DD
:10241000FDF701FF68601F48D0F800C0A868C11729
:10242000090441EA10410704624600233846FDF7DB
:10243000F2FE32460023CDE90201FDF7ECFEA86072
:102440001448D0F804C02168C817000440EA1148B5
:102450000F046246002338464146FDF7DCFE324653
:102460000023CDE90201FDF7D6FE20600948D0F82F
:1024700004C06068C117090441EA104107046246BC
:1024800000233846FDF7C7FE3246002304E0000073
:102490000C000020803F0008CDE90201FDF7BBFEE3
:1024A00060601148D0F804C0A068C117090441EA6F
:1024B00010410704624600233846FDF7ACFE324661
:1024C0000023CDE90201FDF7A6FEA060A068002868
:1024D00004DDA068A0F58030A06003E0A06800F5EE
:1024E0008030A0600020E2E5803F00082DE9FC5F1D
:1024F00006460F4600253D494968087801AB03228E
:102500000D2100F07BF810B10720BDE8FC9F9DF87D
:10251000040000F01F008DF804009DF8050000F095
:102520001F008DF805009DF8060000F01F008DF8D3
:102530000600002456E056F8240057F82410A0EBBB
:10254000010BBBF1000F01DB594601E0CBF10001AB
:10255000084601F023FB4FF08F41009001F0ECF9A9
:10256000814601A8005D68B32149086801F02EFB8F
:10257000834659461F4801F0DFF9804604E01E49B2
:10258000404601F06BFB804601A8005D401EC0B2D2
:1025900001A908550028F2D14146484601F0CCF97E
:1025A00083464FF07E5101F061FC82462AF0004BD9
:1025B0000F488169584601F01DFC12D20120A0404D
:1025C00005430EE00A480169484601F013FB05D3B4
:1025D00007484169484601F00DFC02D20120A040A5
:1025E0000543641C032CA6DB28468EE70C00002064
:1025F000803F000800B04C4554E3853F2DE9F04191
:1026000006460F4614461D46FEF7E6FA10B90120AD
:10261000BDE8F0817106080EFEF7ACFAFEF734FB58
:1026200018B9FEF70DFB0120F2E73846FEF7A2FAD3
:10263000FEF72AFBFEF7D0FA012101EB4601C8B2F2
:10264000FEF798FAFEF720FB0DE0012C04D10020E4
:10265000FEF758FA287003E00120FEF753FA2870BD
:102660006D1C601EC4B2002CEFD1FEF7E9FA002009
:10267000CEE72DE9F04105460E4617469846FEF78F
:10268000ABFA10B90120BDE8F0816906080EFEF72B
:1026900071FAFEF7F9FA18B9FEF7D2FA0120F2E75B
:1026A0003046FEF767FAFEF7EFFA00240BE018F861
:1026B0000400FEF75FFAFEF7E7FA18B9FEF7C0FA72
:1026C0000020E0E7641CBC42F1DBFEF7B9FA002011
:1026D000D9E770B50546284600F00FF80446E81C17
:1026E00000F00BF844EAC00084B2A81D00F005F821
:1026F00044EA801084B2204670BD014691F9002062
:10270000002A01DD00201EE091F90020002A01DAF4
:10271000042018E091F90120002A01DD012012E0D7
:1027200091F90120002A01DA05200CE091F902203C
:10273000002A01DD022006E091F90220002A01DAD8
:10274000062000E0072070470920FEF7E9FD482039
:10275000FEF7DCFE0220FEF759FB0120FEF756FBD8
:10276000FEF76CFBFEF738FC4FF4FA31482001F01D
:1027700013F8FEF78BF9FEF787FBFDF7A5FF00BF07
:10278000FEE7000070B50446002624F00104184856
:1027900090F8240008B1002070BD1548807A10B967
:1027A0004FF0FF30F8E71248057C807A204010494E
:1027B00008740846007CA04202D04FF0FF3600E0CB
:1027C000002614B90A48007D18B1012000F09CFFD2
:1027D00002E0002000F098FF3CB100F0E9FA20B1DF
:1027E000034805744FF0FF30D6E73046D4E70000C9
:1027F0000C00002001461148407A30B1012807D072
:10280000022808D003280CD108E0022008700BE051
:102810000420087008E00820087005E01020087007
:1028200002E04FF0FF30704700BF0448C07C18B191
:1028300008784006000E08700020F4E70C00002025
:1028400001461348407A30B1012808D002280AD046
:10285000032810D10BE04FF4804008800EE041F6D1
:102860009C7008800AE04FF48050088006E04FF426
:102870000060088002E04FF0FF30704700BF04485E
:10288000C07C10B10888401008800020F5E70000E7
:102890000C00002001460248007C087000207047B0
:1028A0000C00002001460F48007A30B1012807D003
:1028B000022809D003280FD10AE0FA2008800EE090
:1028C0004FF4FA7008800AE04FF47A70088006E04E
:1028D0004FF4FA60088002E00020088000BF00BFCB
:1028E000002070470C00002001460E48007A30B1ED
:1028F000012807D0022808D003280CD108E00A4894
:1029000008600BE00948086008E00948086005E035
:102910000848086002E04FF0FF30704700BF002019
:10292000FBE700000C00002000000343000083428E
:10293000333303423333834101461248C07A0828B7
:1029400017D2DFE800F01704070A0D101318BC2097
:10295000088013E06220088010E02A2008800DE043
:10296000142008800AE00A20088007E0052008807B
:1029700004E000BF00BF0020088000BF00BF0020AF
:10298000704700000C0000200146064890F8240023
:1029900010B14FF0FF3070470248C0890880002016
:1029A000F9E700000C0000201CB580208DF8000025
:1029B000654A1268917C644A526810786B4601221D
:1029C000FFF757FE10B14FF0FF301CBD6420FEF73B
:1029D000BDFD00208DF800005B4A1268917C5A4AC8
:1029E000526810786B460122FFF743FE10B14FF09A
:1029F000FF30EAE7544A1268917D534A52681078D2
:102A00006B460622FFF7FAFD10B14FF0FF30DCE70E
:102A10009DF80500C007400F9DF8031001F001016B
:102A200040EA41009DF8011001F0010140EA010473
:102A300094B1012C03D101214348C17431E0022C2F
:102A400003D100214048C1742BE021463FA0FDF78F
:102A500007FC4FF0FF30B8E73B4A1268D1783A4A9A
:102A6000526810786B460122FFF7C8FD10B14FF095
:102A7000FF30AAE79DF8000000F00F042CB93D4894
:102A8000FDF7EEFB4FF0FF309FE7042C06D13AA094
:102A9000FDF7E6FB01212C48C17402E000212A4821
:102AA000C174FF2128488172FF2027490872FF2145
:102AB00025484172C1724FF6FF71C181FF21017437
:102AC00081740121017380F82210002180F8231005
:102AD000417501751630016041608160163880F8DB
:102AE000241080F82510C1844FF4FA6000F0FCFB3C
:102AF00010B14FF0FF3068E7022000F0C5FA10B1C6
:102B00004FF0FF3061E72A2000F068FC10B14FF071
:102B1000FF305AE7322000F0A3FC10B14FF0FF3035
:102B200053E70020FFF72EFE10B14FF0FF304CE7C7
:102B3000002000F0EBFA10B14FF0FF3045E7002025
:102B400000F0DCFC002040E70C000020556E73759F
:102B500070706F7274656420736F667477617265EC
:102B60002070726F64756374207265762025642E00
:102B70000A000000A04B000848616C662073656E77
:102B80007369746976697479207061727420666FF4
:102B9000756E642E0D0A00002DE9F04385B00546E0
:102BA0000E4690469946294890F8250020B14FF0EE
:102BB000FF3005B0BDE8F08316B94FF0FF30F8E7FD
:102BC000002423E0281B102801DD102000E0281B32
:102BD00087B232193946204600F0F8FC10B14FF0A8
:102BE000FF30E6E701AA3946204600F0A1F810B10F
:102BF0004FF0FF30DDE730193A4601A9FDF7ACFB95
:102C000010B16FF00100D4E7E01984B2AC42D9DB17
:102C10004FEA28208DF8000008F0FF008DF8010031
:102C20000A4A1268917E094A526810786B4602225D
:102C3000FFF71FFD10B14FF0FF30BAE70121034845
:102C400080F82510A0F826900020B2E70C000020A4
:102C500038B50446282C02DD4FF0FF3038BDDCB912
:102C6000002000F085FB00208DF8000007208DF883
:102C700001002E4A1268917C2C4A526810786B46EB
:102C80000222FFF7F6FC10B14FF0FF30E6E700211B
:102C9000264801750020E1E7012000F069FB2020B3
:102CA0008DF80000012C06D100208DF801000520D0
:102CB00000F094FB17E0052C06DC01208DF80100E4
:102CC000052000F08BFB0EE0142C06DC02208DF8B2
:102CD00001000A2000F082FB05E003208DF80100CE
:102CE000142000F07BFB9DF80100072101EB801010
:102CF000C0B28DF801000D4A1268917C0B4A5268EF
:102D000010786B460222FFF7B4FC10B14FF0FF3091
:102D1000A4E7082105488172002101730121017592
:102D20000020FFF72FFD002098E700000C00002096
:102D3000F8B504460D46164616B94FF0FF30F8BDFB
:102D40001A48807A10B94FF0FF30F8E720128DF85A
:102D50000000E0B28DF801009DF8010028441349FD
:102D600049684989884202DD4FF0FF30E7E70F4AA2
:102D70001268117E0D4A526810786B460222FFF7E6
:102D800078FC10B14FF0FF30D9E7EAB2074B1B686F
:102D9000597D064B5B6818783346FFF72FFC10B15E
:102DA0004FF0FF30CBE70020C9E700000C00002007
:102DB00008B56D48807A10B94FF0FF3008BD00208B
:102DC0000090694A1268D17B674A526810786B4656
:102DD0000122FFF74EFC10B14FF0FF30EEE7624AE0
:102DE00012685179604A526810786B460122FFF7E9
:102DF00040FC10B14FF0FF30E0E75B4A12681179F8
:102E0000594A526810786B460122FFF732FC10B124
:102E10004FF0FF30D2E7544890F82400002850D0FB
:102E20000C200090504A126811794F4A526810786D
:102E30006B460122FFF71DFC10B14FF0FF30BDE7DC
:102E4000C02000904848807A00F0010020B19DF831
:102E5000000040F020000090434A12681179424A75
:102E6000526810786B460122FFF703FC10B14FF057
:102E7000FF30A3E73C48407C10B10220009001E005
:102E800000200090384A1268D17B374A5268107887
:102E90006B460122FFF7EDFB10B14FF0FF308DE7DD
:102EA00000200090304A126851792F4A52681078F9
:102EB0006B460122FFF7DDFB002852D04FF0FF30B8
:102EC0007CE704200090284A12681179264A52684B
:102ED00010786B460122FFF7CCFB10B14FF0FF30AA
:102EE0006CE72148807C20B91F48807A00F00100FF
:102EF00010B94020009001E0602000901A4A12684A
:102F00001179194A526810786B460122FFF7B1FB1C
:102F100010B14FF0FF3051E71348407C10B1012051
:102F2000009001E0002000900F4A1268D17B0E4A09
:102F3000526810786B460122FFF79BFB10B14FF0EF
:102F4000FF303BE7084A12685179074A5268107807
:102F5000054B10330122FFF78CFB10B14FF0FF300F
:102F60002CE700202AE700000C0000202DE9F04F9C
:102F70008DB083460F4602200C90424890F8240002
:102F800020B1002000F068F9012600E0002603A827
:102F9000FFF788FC05A8FFF72DFC01A8FFF7CCFC84
:102FA00002A8FFF7F1FC374890F80AA004A8FFF741
:102FB00071FC002407E0002239465846FFF75EF80E
:102FC00000B902E0641C022CF5DB00BF022C01D129
:102FD000002528E0002407E0012206A909A8FFF740
:102FE0004DF800B902E0641C022CF5DB00BF022C96
:102FF00001D1002517E006A93846FEF733FA00F0A4
:10300000FF0809A95846FFF771FA00F0FF090025EB
:10301000B9F1000F01D145F00105B8F1000F01D160
:1030200045F0020500BFFF2016490872FF21154830
:103030004172C1724FF6FF71C181FF21817201742B
:1030400001210173BDF80C0000F04EF99DF8140049
:1030500000F01AF8BDF8040000F0C0F9BDF808004F
:1030600000F0FEF9504600F049FA9DF81000FFF715
:1030700089FB16B1012000F0EFF828460DB0BDE83D
:10308000F08F00000C00002038B504461E48807AFE
:1030900010B94FF0FF3038BD022C06D0042C07D0F9
:1030A000082C08D0102C0CD108E0002000900BE078
:1030B0000820009008E01020009005E01820009003
:1030C00002E04FF0FF30E6E700BF0F48407A9DF87E
:1030D0000010B0EBE10F01D10020DCE70A4A1268D2
:1030E000D179094A526810786B460122FFF7C1FA7C
:1030F00010B14FF0FF30CEE79DF80000C11002483C
:1031000041720020C7E700000C00002038B50446DB
:103110005048807CA04201D1002038BD002C46D010
:103120004C4A126811794B4A526810786B4601225A
:10313000FFF764FA10B14FF0FF30EEE79DF80000A2
:1031400020F020000090434A12681179414A5268E9
:1031500010786B460122FFF78CFA10B14FF0FF3068
:10316000DBE70320FEF7F2F902200090394890F8DF
:10317000220020B19DF8000040F08000009035480A
:1031800090F8230020B19DF8000040F0300000903E
:10319000304A1268117D2F4A526810786B4601221E
:1031A000FFF767FA002851D04FF0FF30B5E7294A02
:1031B00012681179274A526810786B460122FFF78E
:1031C0001DFA10B14FF0FF30A7E72248807A00F0D7
:1031D000010028B19DF8000040F02000009004E0BC
:1031E0009DF8000020F0200000901A4A1268117922
:1031F000184A526810786B460122FFF73AFA10B16C
:103200004FF0FF3089E70320FEF7A0F9114890F84E
:10321000220010B18020009001E0002000900D48B5
:1032200090F8230020B19DF8000040F0300000909D
:10323000084A1268117D074A526810786B460122CD
:10324000FFF717FA10B14FF0FF3066E701488474BA
:10325000002062E70C00002038B50446214890F8B1
:103260002400A04201D1002038BD24B31D4890F8AD
:10327000250010B94FF0FF30F6E7002000F044FAC7
:103280000020FFF743FF1749C88C00F0E9F8002041
:1032900000901449496808786B4601222321FFF702
:1032A000E8F901210F4880F82410012000F02CFAE1
:1032B000FFF77EFD13E0002000F026FA0948007CAD
:1032C00000900849496808786B4601222321FFF7DE
:1032D000D0F90021034880F82410FFF769FD002091
:1032E000C2E700000C00002038B504461F48807A71
:1032F00010B94FF0FF3038BDFA2C09D0B4F5FA7F81
:1033000009D0B4F57A7F09D0B4F5FA6F0CD108E092
:10331000002000900BE00820009008E010200090B2
:1033200005E01820009002E04FF0FF30E3E700BF17
:103330000E48007A9DF80010B0EBE10F01D100209B
:10334000D9E70A4A12689179084A526810786B46A0
:103350000122FFF78EF910B14FF0FF30CBE79DF857
:103360000000C010014908720020C4E70C000020D2
:1033700038B50446184890F82300A04201D1002037
:1033800038BD14B13020009001E0002000901248B8
:10339000807C20B19DF8000040F0020000900E48B3
:1033A00090F8220020B19DF8000040F080000090CD
:1033B000094A1268117D084A526810786B4601224A
:1033C000FFF757F910B14FF0FF30D9E7024880F806
:1033D00023400020D4E700000C00002038B504464C
:1033E0001E48807A10B94FF0FF3038BDBC2C02DB8C
:1033F0000120009015E0622C02DB0220009010E01A
:103400002A2C02DB032000900BE0142C02DB0420AA
:10341000009006E00A2C02DB0520009001E0062067
:1034200000900E48C07A9DF80010884201D100201B
:10343000DBE70A4A12689178084A526810786B46AE
:103440000122FFF716F910B14FF0FF30CDE79DF8DC
:1034500000100248C1720020C7E700000C000020E5
:1034600038B504462448807A10B94FF0FF3038BD93
:10347000214890F8240010B14FF0FF30F7E71E48C4
:10348000007D50B134B1282C04DCE0B2FFF7E0FB42
:103490000020ECE70020FFF7DBFB042C01DA04241A
:1034A00004E0B4F57A7F01DD4FF47A744FF47A705A
:1034B00090FBF4F0401EC0B200900F4A12685178A1
:1034C0000D4A526810786B460122FFF7D2F810B10E
:1034D0004FF0FF30CBE79DF80000401C4FF47A71AD
:1034E00091FBF0F081B20448C1810146C9894810BE
:1034F000FFF774FF0020BAE70C00002038B504463F
:1035000004F0700010B10120009005E014B100201B
:10351000009001E0402000902B4A1268917C2A4ADA
:10352000526810786B460122FFF7A3F820B1002102
:1035300025488172481E38BD9DF8000020F04001EA
:10354000214801730020009004F0400020B99DF84C
:10355000000040F00400009004F0200020B99DF825
:10356000000040F00200009004F0100020B99DF827
:10357000000040F00100009004F0080020B99DF820
:10358000000040F0380000900F4A1268D17C0E4ACB
:10359000526810786B460122FFF76BF820B10021CA
:1035A00009488172481EC6E724B1082C02D00020C9
:1035B000FFF7DEFE04488472002101753220FDF71A
:1035C000C5FF0020B7E700000C000020F8B5044656
:1035D0000D46164616B94FF0FF30F8BD1A48807AEE
:1035E00010B94FF0FF30F8E720128DF80000E0B27C
:1035F0008DF801009DF80100284413494968498964
:10360000884202DD4FF0FF30E7E70F4A1268117E73
:103610000D4A526810786B460222FFF72AF810B163
:103620004FF0FF30D9E7EAB2074B1B68597D064BD4
:103630005B6818783346FFF71CF810B14FF0FF3085
:10364000CBE70020C9E700000C00002070B588B06F
:1036500002A905A8FFF78AFC0446072C3FD101A860
:10366000FFF742F9059800F099FA0646019900F033
:10367000F5FA054600F056FA0590069800F08EFA25
:103680000646019900F0EAFA054600F04BFA06906A
:10369000079800F083FA0646019900F0DFFA054624
:1036A00000F040FA079005A8FEF7DEF96846FFF73C
:1036B000C7F8BDF80010029848430290BDF800100A
:1036C000039848430390BDF80010049848430490C1
:1036D00002A8FEF7F9F803A0FCF7C2FD00BF08B08E
:1036E00070BD000073657474696E672062696173F0
:1036F0002073756363657366756C6C79202E2E2E4E
:103700002E2E2E0D0A00000038B50446214890F8F0
:103710002400C0B114B10220009001E0002000900C
:103720001C4A1268D17B1B4A526810786B460122F2
:10373000FEF79FFF10B14FF0FF3038BD9DF800102D
:103740001448417423E01348807A10B94FF0FF30D9
:10375000F3E724B10F48407C08B10020EDE714B135
:103760000120009001E0002000900A4A1268D17BFD
:10377000084A526810786B460122FEF77AFF10B1B2
:103780004FF0FF30D9E79DF8001002484174002047
:10379000D3E700000C0000202DE9F05F05460E463F
:1037A000300100F013FA8146284905FB01F000F0D2
:1037B0000DFA8246494600F0BFF80746384600F049
:1037C000CDF984B2204600F001FA8346394600F074
:1037D00042FB82464FF0834100F040FA814600F000
:1037E000BDF980464FF6FF7000EA041404EB0800B0
:1037F00084B21748806940F0040015498861084682
:10380000806940F4804088611248006820F47F603D
:10381000104908600846006840F40B6008600C48D6
:10382000C06840F480400A49C8600846C06820F477
:103830008040C86008480480001D008842F20C01E6
:1038400008430549091D0880BDE8F09F40420F006C
:1038500000100240040801400838014090EA010FBE
:1038600048BF81F0004100F10883421A3CBF801A32
:1038700089184FEAD0524FF07F4C1CEA410FA2EB5F
:10388000D15318BF9CEA026F00F03B804FF0004C10
:103890004CEA00204CEA012121FA03FC10EB0C0C4D
:1038A0001ED202F1FF325FEA1C2040EBC25038BF4B
:1038B00070471CF07F0F4FEA400C18BFBCF17F4FE0
:1038C00038BF7047C3F12003994008BF20F00100C2
:1038D000BCF17F4F38BF7047A0F1C04000F085BAFF
:1038E0004FEA3C00000A40EBC25028BF1CF0FF0F1B
:1038F0004FEA400CE6D018BFBCF17F4F38BF70478D
:10390000EAE79CEA026F05D010EA5C0F08BF00F0FE
:103910000040704710B500F022FA00BF64FBBE3EC5
:10392000401058BFC0F14040491058BFC1F140415C
:103930008142EFF3008070474FF47F0C1CEAD012F5
:103940001EBF1CEAD11392EA0C0F93EA0C0F00F091
:10395000858090EA010F48BF42F4807240F4000C69
:1039600041F400002CF07F4120F07F4000B58142FF
:10397000A2EB03020FF2081CACEB504EC0F10000AA
:103980009EF800E04FEA4E0E00FB0EFC38BF4900E7
:103990004FEA2C1C02F5FA020CFB0EF34FEACE1E86
:1039A0004FEA112C4FEAC1210EEB635E42EB22423B
:1039B0000EFB0CFC4FEA1C5300FB03114FEA112CC9
:1039C0004FEA01310EFB0CFC4FEADC4C00FB0C1102
:1039D000C14228BF09184CEB03335DF804EB10EB30
:1039E000410143EBC250B2F57C0F38BF704729D577
:1039F00012F0F00F1CBF00F1C04000F00040704713
:103A0000008182838485868788898B8C8D8E8F91B7
:103A10009293959697999A9C9D9FA0A2A3A5A7A8DB
:103A2000AAACAEB0B2B3B5B7B9BCBEC0C2C5C7C907
:103A3000CCCED1D4D7D9DCDFE2E6E9ECF0F3F7FA6B
:103A4000FE0000004FEA400C0CF1807CBCF17E4F80
:103A500028BF7047B0F1C04000F0C7B990EA010F2D
:103A60000CEAD11348BF42F48072624538BF634507
:103A700007D213F47F0F16D080EA010000F0004057
:103A8000704710B500F06BF9097EFC3E00F005B8F8
:103A900080EA010000F00040704780EA010000F079
:103AA000004000F0A2B912F47F0F04BF0248704733
:103AB00080EA010000F099B90000C07F50EA010CD3
:103AC00000F113801CF5000F58BFBCF5000F01D4A6
:103AD0008842704707D710F5000F58BF11F5000F47
:103AE00015D488427047894270471CF5000F04D5F1
:103AF000BCF5000FF7D5814270474FF0807C1CEB7E
:103B0000400F38BF1CEB410F01D28142704710B506
:103B100000F025F9922449004FF000504FF08051F9
:103B2000FFF7FEBE41000B0ED3F19E0208D950F400
:103B300000034FEA032323FA02F048BF40427047D4
:103B400010B500F00CF900BF4992248000207047A6
:103B50006FF0004282EA200070470000C10DD1F1F1
:103B60009E0206DB4FEA002343F0004323FA02F0F3
:103B70007047004207D54FEA4001B1F1FE4F02D233
:103B80004FF00000704710B500F0E9F8499224802A
:103B9000002070476FEA20007047000010F00041DD
:103BA00048BF4042B0FA80F310FA03F2C3F19D031C
:103BB0000BD051EAC35101EB1220530638BF7047B6
:103BC00000F1010008BF20F001007047B0FA80F357
:103BD00010FA03F2C3F19D030AD0D90501EB1220BC
:103BE000530638BF704700F1010008BF20F0010004
:103BF0007047000050EA010C00F113801CF5000F23
:103C000058BFBCF5000F01D48842704707D710F5A4
:103C1000000F58BF11F5000F15D488427047894234
:103C200070471CF5000F04D5BCF5000FF7D5814295
:103C300070474FF0807C1CEB400F38BF1CEB410FEE
:103C400001D28142704710B500F089F892244900F2
:103C50004FF000504FF08051FFF762BE4FF47F0CE1
:103C60001CEAD0121EBF1CEAD11392EA0C0F93EA91
:103C70000C0F00F0478090EA010F48BF42F48072B9
:103C80004FF0004C4CEA00204CEA012102EB030209
:103C9000A0FB0113A2F50002002918BF43F00103A5
:103CA0005B0028BF4FEA330342EB22425FEA132C4A
:103CB0004CEBC2502EBFBCEB436FB2F57C0F70478C
:103CC0004FEA036CBCF1004F08BF20F00100B2F5D1
:103CD0007C0F38BF70470BD582F0FF0212F5803F92
:103CE000C8BF704700F1C040D8BF00F00040704727
:103CF00000F5000C5FEA4C0C48BF7047B0F1C040C3
:103D000000F073B890EA010F0CEAD11348BF42F4F7
:103D10008072624538BF634504D280EA010000F03A
:103D20000040704710B500F01AF800BF8900013E4E
:103D300000F007B800F009B85FEA410C5FEA1C6CBC
:103D400008D080EA010000F050B85FEA400C5FEA5A
:103D50001C6CF6D14FF00040A0F5800070470EF1CA
:103D6000020E2EF0030E5EF8044B244204D44FEAF8
:103D70004102B2F17F4F11D84FEA4003B3F17F4FB8
:103D80000CD80ED14FEAD07CB2F17F4F0CEB4C0C2B
:103D90000CF1020C08BF4CEBD17C04E04FF0080C96
:103DA00001E04FEAD17C0CEB4C0324FA03F404F05D
:103DB0000704B4F1040C06D20EEB840CBDE81040ED
:103DC0004CF0010C6047DFE80CF0070802024FF0EE
:103DD0000040A0F5800010BD0846420018BFD2F197
:103DE000807288BF00F0004010BDFF2141EAD05032
:103DF000C005704751EA000C00F113801CF5000F5C
:103E000058BFBCF5000F01D48142704707D711F5A8
:103E1000000F58BF10F5000F15D48142704789423A
:103E200070471CF5000F04D5BCF5000FF7D588428C
:103E300070474FF0807C1CEB410F38BF1CEB400FEC
:103E400001D28842704780EA010081EA000180EADD
:103E50000100FFF7F8BE80F0004090EA010F7FF507
:103E600004AD81F0004100F008B8000090EA010FB5
:103E700048BF81F000413FF5F8AC421A04D882F007
:103E80000042A0EB020011444FEAD0524FF07F4CA9
:103E90001CEA410FA2EBD15318BF9CEA026F4AD033
:103EA0004FF0004C4CEA00204CEA012121FA03FCBF
:103EB000B0EB0C0C0FD412F0FE0F36D05FEA4C00C2
:103EC0001DD5001240EBC25038BF70471CF03F0FA9
:103ED00018BF70470BE0A2F101025FEA1C2040EB23
:103EE000C25038BF70471CF07F0F18BF7047C3F136
:103EF0002003994014BF401E20F001007047800845
:103F00004FEA122308BF7047B0FA80FCA2EB0C0204
:103F1000CCF1280C60FA0CF093EA122F04BF00EBEE
:103F2000C25070474FEAC3707047130A5FEADC1053
:103F300008BF7047F6E79CEA026F04D010EA5C0FF6
:103F400008BF0020704710B5FFF709FF40DFF63EBD
:103F500081F00040704700006800000476005401C2
:103F6000F7FD000175191A0C6A231B1C1F207274BF
:103F7000433B4138393A6B6C376F06246D6E7000E5
:103F80008300000000080000000100183200050056
:103F9000000020410000D242295C0F3E9A99993ED0
:103FA0003333733F295C0F3E000070000000002493
:103FB000000000020003000000650054FFEF000055
:103FC000FA80000B12820001030C30C30E8C8CE9C6
:103FD00014D5400213710F8E3883F8833000F883B4
:103FE000258EF8833000F883FFFFFFFF0FFEA9D670
:103FF000240004001A8279A10000003CFFFF0000A9
:104000000010000038836FA2003E03304000000023
:1040100002CAE3093E80000020000000000000000A
:104020004000000060000000000C0000000C186E52
:10403000000006920A16C0DFFFFF0256FD8CD37700
:10404000FFE1C496E0C5BEAA00000000FFFF0B2BF5
:1040500000001657000003594000000000001DFA40
:1040600000026C1D000000003FFFDFEB003EB3B616
:10407000000D227800002F3C00000000001942B51E
:10408000000039A20000B365D90E9FC91DCF4C3482
:1040900030000000500000003BB67AE800640000E9
:1040A00000C8000000000000100000001000FA929C
:1040B0001000225E000D229F00010000003200006F
:1040C000FF46000063D400001000000004D600008A
:1040D00004CC000004CC000000001072000000407E
:1040E00000000000000000000006000200050007BC
:1040F0000000000000640000000000000000000557
:104100000005006400200000000000000000000026
:10411000000040000000030000000032F89800009A
:10412000FF650000830F0000FF9BFC000000000003
:10413000000000000000000000000000000000007F
:10414000000000000000000000000000000000006F
:104150000000000000001000400000000000000609
:104160000000B26A000200000001FB83006800004A
:1041700000D9FC007CF1FF83000000000065000016
:10418000006403E80064002800000025000000002F
:1041900016A000000000100000001000002F00001A
:1041A000000001F40000100000280000FFFF45811E
:1041B000FFFFFA720000000000000000004400054C
:1041C0000005BAC6004778A2000000010000000008
:1041D00000000600000000140000254D002F706D47
:1041E000000005AE000C02D000000000000000003E
:1041F0000000000000000000001B000000000000A4
:104200000000000000000000006400000008000042
:10421000000000000000000000000000000000009E
:10422000000000000000000000000000000000008E
:10423000000000000000000000000000000000007E
:10424000000000000000000000000000000000006E
:10425000000000000000000000000000000000005E
:104260000000000000000000001B00000000000033
:1042700000000000000E000E00000AC7000400004D
:1042800000000032FFFFFF9C00000B2B000000022B
:104290000000000100000064FFE5000000000000D5
:1042A000000000000000000000000001000000000D
:1042B00000010000000000000001800000018000FB
:1042C00000018000002426D3000000000000000050
:1042D000000600100096003C0000000000000000F6
:1042E00000000000000000000C0A4E68CDCF7709E6
:1042F00050166759C619CE82000000000000000069
:1043000000000000000000000000000000000000AD
:1043100017D7840003000000000000000000000028
:10432000C7938F9D1E1B1C19000000000000000099
:10433000000000000000000000000000000000007D
:104340000203188500004000000000030000000385
:10435000000000000000000040000000000000001D
:10436000000000000000000000000000000000004D
:10437000000000000000000000000000000000003D
:10438000000000000000000000000000677DDF7EEC
:1043900072902E554CF6E6880000000000000000E8
:1043A0000000000000000000D8DCB4B8B0D8B9AB01
:1043B000F3F8FAB3B7BB8E9EAEF132F51BF1B4B889
:1043C000B08097F1A9DFDFDFAADFDFDFF2AAC5CD7A
:1043D000C7A90CC92C97F1A989264666B28999A963
:1043E0002D557DB0B08AA896365676F1BAA3B4B2F0
:1043F00080C0B8A89711B28398BAA3F024084410DB
:104400006418B2B9B49883F1A329557DBAB5B1A3A4
:104410008393F0002850F5B2B6AA839328547CF118
:10442000B9A3829361BAA2DADEDFDB819AB9AEF575
:10443000606870F1DABAA2DFD9BAA2FAB9A382929F
:10444000DB31BAA2D9BAA2F8DF85A4D0C1BBAD8353
:10445000C2C5C7B8A2DFDFDFBAA0DFDFDFD8D8F17F
:10446000B8AAB38DB4980D355DB2B6BAAF8C9619B3
:104470008F9FA70E161EB49AB8AA872C547CBAA494
:10448000B08AB691325676B28494A4C808CDD8B812
:10449000B4B0F19982A82D557D98A80E161EA22CB5
:1044A000547C92A4F02C5078F184A898C4CDFCD808
:1044B0000DDBA8FC2DF3D9BAA6F8DABAA6DED8BA75
:1044C000B2B68696A6D0F3C841DAA6C8F8D8B0B47A
:1044D000B882A892F52C548898F135D9F418D8F1FF
:1044E000A2D0F8F9A884D9C7DFF8F883C5DADF6964
:1044F000DF83C1D8F40114F1A8824EA884F311D14E
:1045000082F5D992289788F109F41C1CD884A8F365
:10451000C0F9D1D99782F129F40DD8F3F9F9D1D99D
:1045200082F4C203D8DEDF1AD8F1A2FAF9A884987F
:10453000D9C7DFF8F8F883C7DADF69DFF883C3D8B3
:10454000F40114F198A8822EA884F311D182F5D930
:1045500092509788F109F41CD884A8F3C0F8F9D1D7
:10456000D99782F149F40DD8F3F9F9D1D982F4C47D
:1045700003D8DEDFD8F1AD8898CCA809F9D98292AA
:10458000A8F57CF1883ACF944A6E98DB6931DAADB0
:10459000F2DEF9D88795A8F221D1DAA5F9F417D976
:1045A000F1AE8ED0C0C3AE82C684C3A88595C8A51F
:1045B00088F2C0F1F4010EF18E9EA8C63E56F55465
:1045C000F18872F40115F19845856EF58E9E048888
:1045D000F142985A8E9E068869F4011CF1981E11CA
:1045E00008D0F504F11E970202983625DBF9D9852B
:1045F000A5F3C1DA85A5F3DFD88595A8F309DAA577
:10460000FAD88292A8F578F1881A849F2688982192
:10461000DAF41DF3D8879F39D1AFD9DFDFFBF9F486
:104620000CF3D8FAD0F8DAF9F9D0DFD9F9D8F40BCD
:10463000D8F3879F39D1AFD9DFDFF41DF3D8FAFC67
:10464000A869F9F9AFD0DADEFAD9F88F9FA8F1CCD2
:10465000F398DB45D9AFDFD0F8D8F18F9FA8CAF324
:104660008809DAAF8FCBF8D8F2AD978D0CD9A5DFDA
:10467000F9BAA6F3FAF412F2D8950DD1D9BAA6F385
:10468000FADAA5F2C1BAA6F3DFD8F1BAB2B68696C5
:10469000A6D0CAF349DAA6CBF8D8B0B4B8D8AD845E
:1046A000F2C0DFF18FCBC3A8B2B68696C8C1CBC328
:1046B000F3B0B48898A821DB718D9D71859521D9BF
:1046C000ADF2FAD88597A828D9F408D8F28D29DA5E
:1046D000F405D9F285A4C2F2D8A88D9401D1D9F4F9
:1046E00011F2D88721D8F40AD8F28498A8C801D149
:1046F000D9F411D8F3A4C8BBAFD0F2DEF8F8F8F8BB
:10470000F8F8F8F8D8F1B8F6B5B9B08A95A3DE3C58
:10471000A3D9F8D85CA3D9F8D87CA3D9F8D8F8F9EC
:10472000D1A5D9DFDAFAD8B18530F7D9DED8F8309B
:10473000ADDADED8F2B48C99A32D557DA083DFDFEE
:10474000DFB591A0F629D9FBD8A0FC29D9FAD8A0C9
:10475000D051D9F8D8FC51D9F9D879D9FBD8A0D003
:10476000FC79D9FAD8A1F9F9F9F9F9A0DADFDFDF94
:10477000D8A1F8F8F8F8F8ACDEF8ADDE8393AC2CED
:10478000547CF1A8DFDFDFF69D2CDAA0DFD9FADB5D
:104790002DF8D8A850DAA0D0DED9D0F8F8F8DB553B
:1047A000F8D8A878DAA0D0DFD9D0FAF8F8F8F8DB92
:1047B0007DF8D89CA88CF530DB38D9D0DEDFA0D0CE
:1047C000DEDFD8A848DB58D9DFD0DEA0DFD0DED8C6
:1047D000A868DB70D9DFDFA0DFDFD8F1A888902CD4
:1047E000547C98A8D05C38D1DAF2AE8CDFF9D8B01E
:1047F00087A8C1C1B188A8C6F9F9DA36D8A8F9DA0C
:1048000036D8A8F9DA36D8A8F9DA36D8A8F9DA36D7
:10481000D8F78D9DADF818DAF2AEDFD8F7ADFA30E3
:10482000D9A4DEF9D8F2AEDEFAF983A7D9C3C5C799
:10483000F1889BA77AADF7DEDFA4F8849408A797E8
:10484000F300AEF29819A488C6A39488F632DFF27A
:104850008393DB09D9F2AADFD8D8AEF8F9D1DAF31D
:10486000A4DEA7F1889B7AD8F38494AE19F9DAAA6A
:10487000F1DFD8A881C0C3C5C7A39283F628ADDEF7
:10488000D9F8D8A350ADD9F8D8A378ADD9F8D8F8CD
:10489000F9D1A1DADEC3C5C7D8A18194F818F2B066
:1048A00089ACC3C5C7F1D8B8B4B09786A8319B0608
:1048B0009907AB9728889BF00C201440B0B4B8F04F
:1048C000A88A9A285078B79BA8295179247059440E
:1048D0006938644831F1BBAB88002C547CF0B38B51
:1048E000B8A804285078F1B088B49726A85998BB86
:1048F000ABB38B02264666B0B8F08A9CA8295179E2
:104900008B2951798A2470598B2058718A446938CF
:104910008B3940688A6448318B30496088F1AC003B
:104920002C547CF08CA804285078F1889726A8593C
:1049300098AC8C02264666F0899CA829517924708F
:1049400059446938644831A98809205970AB113835
:104950004069A8193148608CA83C415C207C00F17A
:1049600087981986A86E767EA999882D557DD8B12D
:10497000B5B9A3DFDFDFAED0DFAAD0DEF2ABF8F946
:10498000D9B087C4AAF1DFDFBBAFDFDFB9D8B1F19F
:10499000A3978E60DFB084F2C8F8F9D9DED893858A
:1049A000F14AB183A308B5839A0810B79F10D8F1D4
:1049B000B0BAAEB08AC2B2B68E9EF1FBD9F41DD8A1
:1049C000F9D90CF1D8F8F8AD61D9AEFBD8F40CF1F7
:1049D000D8F8F8AD19D9AEFBDFD8F416F1D8F8AD98
:1049E0008D61D9F4F4ACF59C9C8DDF2BBAB6AEFA90
:1049F000F8F40BD8F1AED0F8AD51DAAEFAF8F1D840
:104A0000B9B1B6A3839C08B9B1839AB5AAC0FD30E9
:104A100083B79F10B58B93F20202D1ABDADED8F1E7
:104A2000B080BAABC0C3B284C1C3D8B1B9F38BA351
:104A300091B609B4D9ABDEB0879CB9A3DDF1B38BD5
:104A40008B8B8B8BB087A3A3A3A3B28BB69BF2A354
:104A5000A3A3A3A3A3A3A3A3A3F1B087B59AA3F38E
:104A60009BA3A3DCBAACDFB9A3A3A3A3A3A3A3A373
:104A7000A3A3A3A3A3A3A3A3D8D8D8BBB3B7F1AAD6
:104A8000F9DAFFD9809AAA28B48098A720B7978727
:104A9000A86688F07951F1902C870CA781976293D2
:104AA000F071716085940129517990A5F1284C6CC1
:104AB000870C95188578A38390284C6C886CD8F364
:104AC000A28200F210A8921980A2F2D926D8F18809
:104AD000A84DD948D896A83980D93CD89580A8390E
:104AE000A68698D92CDA87A72CD8A8899519A980E9
:104AF000D938D8A88939A980DA3CD8A82EA8399005
:104B0000D90CD8A8953198D90CD8A809D9FFD801C3
:104B1000DAFFD89539A9DA26FFD890A80D8999A887
:104B200010809821DA2ED88999A83180DA2ED8A859
:104B300086963180DA2ED8A8873180DA2ED8A882DE
:104B400092F34180F1D92ED8A882F31980F1D92EA1
:104B5000D882ACF3C0A28022F1A62EA72EA922985B
:104B6000A829DAACDEFFD8A2F22AF1A92E8292A8F7
:104B7000F23180A696F1D900AC8C9C0C30ACDED022
:104B8000DEFFD88C9CACD010ACDE8092A2F24C82BE
:104B9000A8F1CAF235F19688A6D900D8F1FF000035
:104BA00050726F647563742049442072656164209B
:104BB0006173203020696E64696361746573206479
:104BC000657669636520697320656974686572201C
:104BD000696E636F6D70617469626C65206F7220BD
:104BE000616E204D5055333035302E0D0A000000D7
:104BF000104C000800000020680000006C01000854
:104C0000784C000868000020700A00008801000845
:104C1000000000000000000000000000643F0008E9
:104C2000583F0008000000000000000000000000E5
:104C30000000000000000000000000000000000074
:104C400000000000803F000800000000000000009D
:104C500000000000000000000000803F0000000095
:104C60000000000000000000FF000000FF00000046
:084C700001000000000000003B
:04000005080001D519
:00000001FF
